{
  "_format": "hh-sol-artifact-1",
  "contractName": "Rent",
  "sourceName": "contracts/Rent.sol",
  "abi": [
    {
      "inputs": [],
      "stateMutability": "nonpayable",
      "type": "constructor"
    },
    {
      "inputs": [
        {
          "internalType": "address",
          "name": "owner",
          "type": "address"
        }
      ],
      "name": "OwnableInvalidOwner",
      "type": "error"
    },
    {
      "inputs": [
        {
          "internalType": "address",
          "name": "account",
          "type": "address"
        }
      ],
      "name": "OwnableUnauthorizedAccount",
      "type": "error"
    },
    {
      "anonymous": false,
      "inputs": [
        {
          "indexed": true,
          "internalType": "address",
          "name": "previousOwner",
          "type": "address"
        },
        {
          "indexed": true,
          "internalType": "address",
          "name": "newOwner",
          "type": "address"
        }
      ],
      "name": "OwnershipTransferred",
      "type": "event"
    },
    {
      "anonymous": false,
      "inputs": [
        {
          "indexed": false,
          "internalType": "uint256",
          "name": "propertyId",
          "type": "uint256"
        },
        {
          "indexed": false,
          "internalType": "address",
          "name": "guest",
          "type": "address"
        },
        {
          "indexed": false,
          "internalType": "uint64",
          "name": "numberOfDays",
          "type": "uint64"
        },
        {
          "indexed": false,
          "internalType": "uint256",
          "name": "price",
          "type": "uint256"
        }
      ],
      "name": "PropertyBookedEvent",
      "type": "event"
    },
    {
      "anonymous": false,
      "inputs": [
        {
          "indexed": false,
          "internalType": "string",
          "name": "name",
          "type": "string"
        },
        {
          "indexed": false,
          "internalType": "string",
          "name": "propertyAddress",
          "type": "string"
        },
        {
          "indexed": false,
          "internalType": "string",
          "name": "description",
          "type": "string"
        },
        {
          "indexed": false,
          "internalType": "string",
          "name": "imgUrl",
          "type": "string"
        },
        {
          "indexed": false,
          "internalType": "uint256",
          "name": "pricePerDay",
          "type": "uint256"
        },
        {
          "indexed": false,
          "internalType": "uint64",
          "name": "numberOfRooms",
          "type": "uint64"
        },
        {
          "indexed": false,
          "internalType": "uint64",
          "name": "area",
          "type": "uint64"
        },
        {
          "indexed": false,
          "internalType": "uint256",
          "name": "propertyId",
          "type": "uint256"
        }
      ],
      "name": "PropertyListedEvent",
      "type": "event"
    },
    {
      "inputs": [
        {
          "internalType": "address",
          "name": "user",
          "type": "address"
        }
      ],
      "name": "addUserToWhitelist",
      "outputs": [],
      "stateMutability": "nonpayable",
      "type": "function"
    },
    {
      "inputs": [
        {
          "internalType": "uint256",
          "name": "propertyId",
          "type": "uint256"
        },
        {
          "internalType": "uint64",
          "name": "startDate",
          "type": "uint64"
        },
        {
          "internalType": "uint64",
          "name": "endDate",
          "type": "uint64"
        }
      ],
      "name": "bookProperty",
      "outputs": [],
      "stateMutability": "payable",
      "type": "function"
    },
    {
      "inputs": [],
      "name": "counter",
      "outputs": [
        {
          "internalType": "uint256",
          "name": "",
          "type": "uint256"
        }
      ],
      "stateMutability": "view",
      "type": "function"
    },
    {
      "inputs": [
        {
          "internalType": "address",
          "name": "",
          "type": "address"
        }
      ],
      "name": "daysBookedAsGuest",
      "outputs": [
        {
          "internalType": "uint256",
          "name": "",
          "type": "uint256"
        }
      ],
      "stateMutability": "view",
      "type": "function"
    },
    {
      "inputs": [
        {
          "internalType": "address",
          "name": "",
          "type": "address"
        }
      ],
      "name": "daysBookedAsOwner",
      "outputs": [
        {
          "internalType": "uint256",
          "name": "",
          "type": "uint256"
        }
      ],
      "stateMutability": "view",
      "type": "function"
    },
    {
      "inputs": [
        {
          "internalType": "uint256",
          "name": "id",
          "type": "uint256"
        },
        {
          "internalType": "uint256",
          "name": "startDate",
          "type": "uint256"
        },
        {
          "internalType": "uint256",
          "name": "endDate",
          "type": "uint256"
        }
      ],
      "name": "getDuePrice",
      "outputs": [
        {
          "internalType": "uint256",
          "name": "",
          "type": "uint256"
        }
      ],
      "stateMutability": "view",
      "type": "function"
    },
    {
      "inputs": [
        {
          "internalType": "uint256",
          "name": "propertyId",
          "type": "uint256"
        }
      ],
      "name": "getPropertyRentPrice",
      "outputs": [
        {
          "internalType": "uint256",
          "name": "",
          "type": "uint256"
        }
      ],
      "stateMutability": "view",
      "type": "function"
    },
    {
      "inputs": [
        {
          "internalType": "address",
          "name": "user",
          "type": "address"
        }
      ],
      "name": "getStatistic",
      "outputs": [
        {
          "components": [
            {
              "internalType": "uint256",
              "name": "totalEarned",
              "type": "uint256"
            },
            {
              "internalType": "uint256",
              "name": "totalSpent",
              "type": "uint256"
            },
            {
              "internalType": "uint256",
              "name": "daysBookedAsOwner",
              "type": "uint256"
            },
            {
              "internalType": "uint256",
              "name": "daysBookedAsGuest",
              "type": "uint256"
            },
            {
              "internalType": "uint256",
              "name": "timesBookedAsOwner",
              "type": "uint256"
            },
            {
              "internalType": "uint256",
              "name": "timesBookedAsGuest",
              "type": "uint256"
            }
          ],
          "internalType": "struct RentStatistic.Statistic",
          "name": "statistic",
          "type": "tuple"
        }
      ],
      "stateMutability": "view",
      "type": "function"
    },
    {
      "inputs": [
        {
          "internalType": "string",
          "name": "name",
          "type": "string"
        },
        {
          "internalType": "string",
          "name": "propertyAddress",
          "type": "string"
        },
        {
          "internalType": "string",
          "name": "description",
          "type": "string"
        },
        {
          "internalType": "string",
          "name": "imgUrl",
          "type": "string"
        },
        {
          "internalType": "uint256",
          "name": "pricePerDay",
          "type": "uint256"
        },
        {
          "internalType": "uint64",
          "name": "numberOfRooms",
          "type": "uint64"
        },
        {
          "internalType": "uint64",
          "name": "area",
          "type": "uint64"
        }
      ],
      "name": "listProperty",
      "outputs": [
        {
          "internalType": "uint256",
          "name": "",
          "type": "uint256"
        }
      ],
      "stateMutability": "nonpayable",
      "type": "function"
    },
    {
      "inputs": [],
      "name": "owner",
      "outputs": [
        {
          "internalType": "address",
          "name": "",
          "type": "address"
        }
      ],
      "stateMutability": "view",
      "type": "function"
    },
    {
      "inputs": [
        {
          "internalType": "uint256",
          "name": "",
          "type": "uint256"
        }
      ],
      "name": "properties",
      "outputs": [
        {
          "internalType": "address",
          "name": "owner",
          "type": "address"
        },
        {
          "internalType": "address",
          "name": "guest",
          "type": "address"
        },
        {
          "internalType": "string",
          "name": "name",
          "type": "string"
        },
        {
          "internalType": "string",
          "name": "propertyAddress",
          "type": "string"
        },
        {
          "internalType": "string",
          "name": "description",
          "type": "string"
        },
        {
          "internalType": "string",
          "name": "imgUrl",
          "type": "string"
        },
        {
          "internalType": "uint256",
          "name": "pricePerDay",
          "type": "uint256"
        },
        {
          "internalType": "uint64",
          "name": "bookingStartsAt",
          "type": "uint64"
        },
        {
          "internalType": "uint64",
          "name": "bookingEndsAt",
          "type": "uint64"
        },
        {
          "internalType": "uint64",
          "name": "numberOfRooms",
          "type": "uint64"
        },
        {
          "internalType": "uint64",
          "name": "area",
          "type": "uint64"
        },
        {
          "internalType": "bool",
          "name": "isActive",
          "type": "bool"
        }
      ],
      "stateMutability": "view",
      "type": "function"
    },
    {
      "inputs": [],
      "name": "renounceOwnership",
      "outputs": [],
      "stateMutability": "nonpayable",
      "type": "function"
    },
    {
      "inputs": [
        {
          "internalType": "address",
          "name": "",
          "type": "address"
        }
      ],
      "name": "timesBookedAsGuest",
      "outputs": [
        {
          "internalType": "uint256",
          "name": "",
          "type": "uint256"
        }
      ],
      "stateMutability": "view",
      "type": "function"
    },
    {
      "inputs": [
        {
          "internalType": "address",
          "name": "",
          "type": "address"
        }
      ],
      "name": "timesBookedAsOwner",
      "outputs": [
        {
          "internalType": "uint256",
          "name": "",
          "type": "uint256"
        }
      ],
      "stateMutability": "view",
      "type": "function"
    },
    {
      "inputs": [
        {
          "internalType": "address",
          "name": "",
          "type": "address"
        }
      ],
      "name": "totalEarned",
      "outputs": [
        {
          "internalType": "uint256",
          "name": "",
          "type": "uint256"
        }
      ],
      "stateMutability": "view",
      "type": "function"
    },
    {
      "inputs": [
        {
          "internalType": "address",
          "name": "",
          "type": "address"
        }
      ],
      "name": "totalSpent",
      "outputs": [
        {
          "internalType": "uint256",
          "name": "",
          "type": "uint256"
        }
      ],
      "stateMutability": "view",
      "type": "function"
    },
    {
      "inputs": [
        {
          "internalType": "address",
          "name": "newOwner",
          "type": "address"
        }
      ],
      "name": "transferOwnership",
      "outputs": [],
      "stateMutability": "nonpayable",
      "type": "function"
    },
    {
      "inputs": [
        {
          "internalType": "uint256",
          "name": "propertyId",
          "type": "uint256"
        }
      ],
      "name": "unBookPropertyByGuest",
      "outputs": [],
      "stateMutability": "payable",
      "type": "function"
    },
    {
      "inputs": [
        {
          "internalType": "uint256",
          "name": "propertyId",
          "type": "uint256"
        }
      ],
      "name": "unBookPropertyByOwner",
      "outputs": [],
      "stateMutability": "payable",
      "type": "function"
    },
    {
      "inputs": [
        {
          "internalType": "uint256",
          "name": "propertyId",
          "type": "uint256"
        }
      ],
      "name": "unlistProperty",
      "outputs": [],
      "stateMutability": "nonpayable",
      "type": "function"
    },
    {
      "inputs": [
        {
          "internalType": "address",
          "name": "",
          "type": "address"
        }
      ],
      "name": "whitelist",
      "outputs": [
        {
          "internalType": "bool",
          "name": "",
          "type": "bool"
        }
      ],
      "stateMutability": "view",
      "type": "function"
    }
  ],
  "bytecode": "0x608060405234801561001057600080fd5b50338061003757604051631e4fbdf760e01b81526000600482015260240160405180910390fd5b61004081610064565b5060006007819055338152600960205260409020805460ff191660011790556100b4565b600080546001600160a01b038381166001600160a01b0319831681178455604051919092169283917f8be0079c531659141344cd1fd0a4f28419497f9722a3daafe3b4186f6b6457e09190a35050565b6119b6806100c36000396000f3fe60806040526004361061012a5760003560e01c8063876a8f91116100ab578063b543cdcf1161006f578063b543cdcf14610351578063b59b184b14610364578063ba3aa29014610391578063ccc35832146103fd578063f2fde38b1461042a578063f7b108081461044a57600080fd5b8063876a8f911461027c5780638da5cb5b1461028f5780639b19251a146102b7578063a643e04c146102f7578063a8949b461461032457600080fd5b8063715018a6116100f2578063715018a6146101f2578063747b805014610209578063841ad8b91461022957806385ae60641461024957806386dd421b1461026957600080fd5b80632588c8451461012f5780632780842a146101625780632e73c5491461018257806361bc221a146101af578063649aca4a146101c5575b600080fd5b34801561013b57600080fd5b5061014f61014a366004611369565b610482565b6040519081526020015b60405180910390f35b34801561016e57600080fd5b5061014f61017d366004611382565b610501565b34801561018e57600080fd5b5061014f61019d3660046113ae565b60036020526000908152604090205481565b3480156101bb57600080fd5b5061014f60075481565b3480156101d157600080fd5b5061014f6101e03660046113ae565b60016020526000908152604090205481565b3480156101fe57600080fd5b50610207610545565b005b34801561021557600080fd5b506102076102243660046113ae565b610559565b34801561023557600080fd5b50610207610244366004611369565b610585565b34801561025557600080fd5b5061014f61026436600461149c565b6106c4565b610207610277366004611573565b610837565b61020761028a366004611369565b610a76565b34801561029b57600080fd5b506000546040516001600160a01b039091168152602001610159565b3480156102c357600080fd5b506102e76102d23660046113ae565b60096020526000908152604090205460ff1681565b6040519015158152602001610159565b34801561030357600080fd5b5061014f6103123660046113ae565b60046020526000908152604090205481565b34801561033057600080fd5b5061014f61033f3660046113ae565b60026020526000908152604090205481565b61020761035f366004611369565b610b39565b34801561037057600080fd5b5061014f61037f3660046113ae565b60056020526000908152604090205481565b34801561039d57600080fd5b506103b16103ac3660046113ae565b610d19565b6040516101599190600060c082019050825182526020830151602083015260408301516040830152606083015160608301526080830151608083015260a083015160a083015292915050565b34801561040957600080fd5b5061014f6104183660046113ae565b60066020526000908152604090205481565b34801561043657600080fd5b506102076104453660046113ae565b610dca565b34801561045657600080fd5b5061046a610465366004611369565b610e08565b6040516101599c9b9a999897969594939291906115f5565b600081815260086020526040812060018101548391906001600160a01b03166104c65760405162461bcd60e51b81526004016104bd906116c4565b60405180910390fd5b600084815260086020526040902060078101546104f89086906001600160401b0380821691600160401b900416610501565b95945050505050565b6000838152600860205260408120816305265c0061051f86866116ff565b610529919061172e565b905081600601548161053b9190611742565b9695505050505050565b61054d6110a8565b61055760006110d5565b565b6105616110a8565b6001600160a01b03166000908152600960205260409020805460ff19166001179055565b600081815260086020526040902080548291906001600160a01b031633146105e55760405162461bcd60e51b815260206004820152601360248201527227b7363c90383937b832b93a3c9037bbb732b960691b60448201526064016104bd565b600083815260086020526040902060018101548491906001600160a01b0316156106435760405162461bcd60e51b815260206004820152600f60248201526e13db9b1e481b9bdd08189bdbdad959608a1b60448201526064016104bd565b60008581526008602081905260409091209081015460ff166106b25760405162461bcd60e51b815260206004820152602260248201527f50726f706572747920686173206265656e20616c726561647920756e6c697374604482015261195960f21b60648201526084016104bd565b600801805460ff191690555050505050565b3360009081526009602052604081205460ff166107165760405162461bcd60e51b815260206004820152601060248201526f13db9b1e481dda1a5d195b1a5cdd195960821b60448201526064016104bd565b6007546000908152600860205260409020600281016107358a826117e2565b506003810161074489826117e2565b506004810161075388826117e2565b506005810161076287826117e2565b506006810185905560088101805460ff191660019081179091556001600160401b03848116600160c01b026001600160c01b03918716600160801b02919091161760078084019190915582546001600160a01b0319908116331784559183018054909216909155546040517fdd84cc9e19f0c3fce0783973a3a8805d3d4da80b5484271cfae2e99c19fbd93991610807918c918c918c918c918c918c918c91906118a1565b60405180910390a16001600760008282546108229190611920565b90915550506007549998505050505050505050565b600083815260086020526040902060018101548491906001600160a01b0316156108955760405162461bcd60e51b815260206004820152600f60248201526e13db9b1e481b9bdd08189bdbdad959608a1b60448201526064016104bd565b3360009081526009602052604090205460ff166108e75760405162461bcd60e51b815260206004820152601060248201526f13db9b1e481dda1a5d195b1a5cdd195960821b60448201526064016104bd565b60006305265c006108f88686611933565b610902919061195a565b60008781526008602052604090206006015490915061092a906001600160401b038316611742565b34101561096a5760405162461bcd60e51b815260206004820152600e60248201526d29b2b7321036b7b9329022aa241760911b60448201526064016104bd565b6000868152600860205260408082205490516001600160a01b03909116913480156108fc02929091818181858888f193505050501580156109af573d6000803e3d6000fd5b5060008681526008602052604090206007810180546001600160401b03878116600160401b026fffffffffffffffffffffffffffffffff19909216908916171790556001810180546001600160a01b031916339081179091559054610a21916001600160a01b03919091169083611125565b604080518781523360208201526001600160401b0383168183015234606082015290517f1b22ea716339971edfa4113ba98cc6967858f511577d7d21e921550c0192ccae9181900360800190a1505050505050565b600081815260086020526040902060018101548291906001600160a01b0316610ab15760405162461bcd60e51b81526004016104bd906116c4565b600083815260086020526040902060018101548491906001600160a01b03163314610b145760405162461bcd60e51b815260206004820152601360248201527213db9b1e481c1c9bdc195c9d1e4819dd595cdd606a1b60448201526064016104bd565b50505060009182525060086020526040902060010180546001600160a01b0319169055565b600081815260086020526040902060018101548291906001600160a01b0316610b745760405162461bcd60e51b81526004016104bd906116c4565b600083815260086020526040902080548491906001600160a01b03163314610bd45760405162461bcd60e51b815260206004820152601360248201527227b7363c90383937b832b93a3c9037bbb732b960691b60448201526064016104bd565b6000610bdf86610482565b9050803414610c3a5760405162461bcd60e51b815260206004820152602160248201527f4554482076616c7565206e6f7420657175616c20626f6f6b696e6720707269636044820152606560f81b60648201526084016104bd565b6000868152600860205260408082206001015490516001600160a01b03909116913480156108fc02929091818181858888f19350505050158015610c82573d6000803e3d6000fd5b506000868152600860205260408120600701546305265c0090610cb8906001600160401b0380821691600160401b900416611933565b610cc2919061195a565b60008881526008602052604090208054600190910154919250610cf2916001600160a01b0391821691168361124c565b505050600093845250506008602052506040902060010180546001600160a01b0319169055565b610d526040518060c001604052806000815260200160008152602001600081526020016000815260200160008152602001600081525090565b506040805160c0810182526001600160a01b0390921660008181526001602090815283822054855282825260028152838220548186015282825260038152838220548585015282825260048152838220546060860152828252600581528382205460808601529181526006909152205460a082015290565b610dd26110a8565b6001600160a01b038116610dfc57604051631e4fbdf760e01b8152600060048201526024016104bd565b610e05816110d5565b50565b6008602052600090815260409020805460018201546002830180546001600160a01b03938416949290931692610e3d90611759565b80601f0160208091040260200160405190810160405280929190818152602001828054610e6990611759565b8015610eb65780601f10610e8b57610100808354040283529160200191610eb6565b820191906000526020600020905b815481529060010190602001808311610e9957829003601f168201915b505050505090806003018054610ecb90611759565b80601f0160208091040260200160405190810160405280929190818152602001828054610ef790611759565b8015610f445780601f10610f1957610100808354040283529160200191610f44565b820191906000526020600020905b815481529060010190602001808311610f2757829003601f168201915b505050505090806004018054610f5990611759565b80601f0160208091040260200160405190810160405280929190818152602001828054610f8590611759565b8015610fd25780601f10610fa757610100808354040283529160200191610fd2565b820191906000526020600020905b815481529060010190602001808311610fb557829003601f168201915b505050505090806005018054610fe790611759565b80601f016020809104026020016040519081016040528092919081815260200182805461101390611759565b80156110605780601f1061103557610100808354040283529160200191611060565b820191906000526020600020905b81548152906001019060200180831161104357829003601f168201915b50505060068401546007850154600890950154939490936001600160401b038083169450600160401b830481169350600160801b8304811692600160c01b9004169060ff168c565b6000546001600160a01b031633146105575760405163118cdaa760e01b81523360048201526024016104bd565b600080546001600160a01b038381166001600160a01b0319831681178455604051919092169283917f8be0079c531659141344cd1fd0a4f28419497f9722a3daafe3b4186f6b6457e09190a35050565b6001600160a01b0383166000908152600160205260408120805434929061114d908490611920565b90915550506001600160a01b0382166000908152600260205260408120805434929061117a908490611920565b90915550506001600160a01b038316600090815260036020526040812080546001600160401b03841692906111b0908490611920565b90915550506001600160a01b038216600090815260046020526040812080546001600160401b03841692906111e6908490611920565b90915550506001600160a01b0383166000908152600560205260408120805460019290611214908490611920565b90915550506001600160a01b0382166000908152600660205260408120805460019290611242908490611920565b9091555050505050565b6001600160a01b038316600090815260016020526040812080543492906112749084906116ff565b90915550506001600160a01b038216600090815260026020526040812080543492906112a19084906116ff565b90915550506001600160a01b038316600090815260036020526040812080546001600160401b03841692906112d79084906116ff565b90915550506001600160a01b038216600090815260046020526040812080546001600160401b038416929061130d9084906116ff565b90915550506001600160a01b038316600090815260056020526040812080546001929061133b9084906116ff565b90915550506001600160a01b03821660009081526006602052604081208054600192906112429084906116ff565b60006020828403121561137b57600080fd5b5035919050565b60008060006060848603121561139757600080fd5b505081359360208301359350604090920135919050565b6000602082840312156113c057600080fd5b81356001600160a01b03811681146113d757600080fd5b9392505050565b634e487b7160e01b600052604160045260246000fd5b600082601f83011261140557600080fd5b81356001600160401b038082111561141f5761141f6113de565b604051601f8301601f19908116603f01168101908282118183101715611447576114476113de565b8160405283815286602085880101111561146057600080fd5b836020870160208301376000602085830101528094505050505092915050565b80356001600160401b038116811461149757600080fd5b919050565b600080600080600080600060e0888a0312156114b757600080fd5b87356001600160401b03808211156114ce57600080fd5b6114da8b838c016113f4565b985060208a01359150808211156114f057600080fd5b6114fc8b838c016113f4565b975060408a013591508082111561151257600080fd5b61151e8b838c016113f4565b965060608a013591508082111561153457600080fd5b506115418a828b016113f4565b9450506080880135925061155760a08901611480565b915061156560c08901611480565b905092959891949750929550565b60008060006060848603121561158857600080fd5b8335925061159860208501611480565b91506115a660408501611480565b90509250925092565b6000815180845260005b818110156115d5576020818501810151868301820152016115b9565b506000602082860101526020601f19601f83011685010191505092915050565b6001600160a01b038d811682528c166020820152610180604082018190526000906116229083018d6115af565b8281036060840152611634818d6115af565b90508281036080840152611648818c6115af565b905082810360a084015261165c818b6115af565b9150508760c083015261167a60e08301886001600160401b03169052565b6001600160401b0386166101008301526001600160401b0385166101208301526001600160401b0384166101408301528215156101608301529d9c50505050505050505050505050565b6020808252600b908201526a13db9b1e48189bdbdad95960aa1b604082015260600190565b634e487b7160e01b600052601160045260246000fd5b81810381811115611712576117126116e9565b92915050565b634e487b7160e01b600052601260045260246000fd5b60008261173d5761173d611718565b500490565b8082028115828204841417611712576117126116e9565b600181811c9082168061176d57607f821691505b60208210810361178d57634e487b7160e01b600052602260045260246000fd5b50919050565b601f8211156117dd57600081815260208120601f850160051c810160208610156117ba5750805b601f850160051c820191505b818110156117d9578281556001016117c6565b5050505b505050565b81516001600160401b038111156117fb576117fb6113de565b61180f816118098454611759565b84611793565b602080601f831160018114611844576000841561182c5750858301515b600019600386901b1c1916600185901b1785556117d9565b600085815260208120601f198616915b8281101561187357888601518255948401946001909101908401611854565b50858210156118915787850151600019600388901b60f8161c191681555b5050505050600190811b01905550565b60006101008083526118b58184018c6115af565b905082810360208401526118c9818b6115af565b905082810360408401526118dd818a6115af565b905082810360608401526118f181896115af565b608084019790975250506001600160401b0393841660a08201529190921660c082015260e00152949350505050565b80820180821115611712576117126116e9565b6001600160401b03828116828216039080821115611953576119536116e9565b5092915050565b60006001600160401b038084168061197457611974611718565b9216919091049291505056fea2646970667358221220dbe1bd3ef5a761eba1689bec386e9cdafa19ae23c97ec6f33d15351f7b32d81664736f6c63430008140033",
  "linkReferences": {},
  "deployedLinkReferences": {}
}