{
  "_format": "hh-sol-artifact-1",
  "contractName": "Rent",
  "sourceName": "contracts/Rent.sol",
  "abi": [
    {
      "inputs": [],
      "stateMutability": "nonpayable",
      "type": "constructor"
    },
    {
      "anonymous": false,
      "inputs": [
        {
          "indexed": false,
          "internalType": "uint256",
          "name": "propertyId",
          "type": "uint256"
        },
        {
          "indexed": false,
          "internalType": "address",
          "name": "guest",
          "type": "address"
        },
        {
          "indexed": false,
          "internalType": "uint64",
          "name": "numberOfDays",
          "type": "uint64"
        },
        {
          "indexed": false,
          "internalType": "uint256",
          "name": "price",
          "type": "uint256"
        }
      ],
      "name": "PropertyBookedEvent",
      "type": "event"
    },
    {
      "anonymous": false,
      "inputs": [
        {
          "indexed": false,
          "internalType": "string",
          "name": "name",
          "type": "string"
        },
        {
          "indexed": false,
          "internalType": "string",
          "name": "propertyAddress",
          "type": "string"
        },
        {
          "indexed": false,
          "internalType": "string",
          "name": "description",
          "type": "string"
        },
        {
          "indexed": false,
          "internalType": "string",
          "name": "imgUrl",
          "type": "string"
        },
        {
          "indexed": false,
          "internalType": "uint256",
          "name": "pricePerDay",
          "type": "uint256"
        },
        {
          "indexed": false,
          "internalType": "uint64",
          "name": "numberOfRooms",
          "type": "uint64"
        },
        {
          "indexed": false,
          "internalType": "uint64",
          "name": "area",
          "type": "uint64"
        },
        {
          "indexed": false,
          "internalType": "uint256",
          "name": "propertyId",
          "type": "uint256"
        }
      ],
      "name": "PropertyListedEvent",
      "type": "event"
    },
    {
      "inputs": [
        {
          "internalType": "uint256",
          "name": "propertyId",
          "type": "uint256"
        },
        {
          "internalType": "uint64",
          "name": "startDate",
          "type": "uint64"
        },
        {
          "internalType": "uint64",
          "name": "endDate",
          "type": "uint64"
        }
      ],
      "name": "bookProperty",
      "outputs": [],
      "stateMutability": "payable",
      "type": "function"
    },
    {
      "inputs": [],
      "name": "counter",
      "outputs": [
        {
          "internalType": "uint256",
          "name": "",
          "type": "uint256"
        }
      ],
      "stateMutability": "view",
      "type": "function"
    },
    {
      "inputs": [
        {
          "internalType": "uint256",
          "name": "propertyId",
          "type": "uint256"
        },
        {
          "internalType": "uint256",
          "name": "startDate",
          "type": "uint256"
        },
        {
          "internalType": "uint256",
          "name": "endDate",
          "type": "uint256"
        }
      ],
      "name": "getDuePrice",
      "outputs": [
        {
          "internalType": "uint256",
          "name": "",
          "type": "uint256"
        }
      ],
      "stateMutability": "view",
      "type": "function"
    },
    {
      "inputs": [
        {
          "internalType": "string",
          "name": "name",
          "type": "string"
        },
        {
          "internalType": "string",
          "name": "propertyAddress",
          "type": "string"
        },
        {
          "internalType": "string",
          "name": "description",
          "type": "string"
        },
        {
          "internalType": "string",
          "name": "imgUrl",
          "type": "string"
        },
        {
          "internalType": "uint256",
          "name": "pricePerDay",
          "type": "uint256"
        },
        {
          "internalType": "uint64",
          "name": "numberOfRooms",
          "type": "uint64"
        },
        {
          "internalType": "uint64",
          "name": "area",
          "type": "uint64"
        }
      ],
      "name": "listProperty",
      "outputs": [
        {
          "internalType": "uint256",
          "name": "",
          "type": "uint256"
        }
      ],
      "stateMutability": "nonpayable",
      "type": "function"
    },
    {
      "inputs": [],
      "name": "owner",
      "outputs": [
        {
          "internalType": "address",
          "name": "",
          "type": "address"
        }
      ],
      "stateMutability": "view",
      "type": "function"
    },
    {
      "inputs": [
        {
          "internalType": "uint256",
          "name": "",
          "type": "uint256"
        }
      ],
      "name": "properties",
      "outputs": [
        {
          "internalType": "address",
          "name": "owner",
          "type": "address"
        },
        {
          "internalType": "address",
          "name": "guest",
          "type": "address"
        },
        {
          "internalType": "string",
          "name": "name",
          "type": "string"
        },
        {
          "internalType": "string",
          "name": "propertyAddress",
          "type": "string"
        },
        {
          "internalType": "string",
          "name": "description",
          "type": "string"
        },
        {
          "internalType": "string",
          "name": "imgUrl",
          "type": "string"
        },
        {
          "internalType": "uint256",
          "name": "pricePerDay",
          "type": "uint256"
        },
        {
          "internalType": "uint64",
          "name": "bookingStartsAt",
          "type": "uint64"
        },
        {
          "internalType": "uint64",
          "name": "bookingEndsAt",
          "type": "uint64"
        },
        {
          "internalType": "uint64",
          "name": "numberOfRooms",
          "type": "uint64"
        },
        {
          "internalType": "uint64",
          "name": "area",
          "type": "uint64"
        },
        {
          "internalType": "bool",
          "name": "isActive",
          "type": "bool"
        }
      ],
      "stateMutability": "view",
      "type": "function"
    },
    {
      "inputs": [
        {
          "internalType": "uint256",
          "name": "propertyId",
          "type": "uint256"
        }
      ],
      "name": "unBookProperty",
      "outputs": [],
      "stateMutability": "nonpayable",
      "type": "function"
    },
    {
      "inputs": [
        {
          "internalType": "uint256",
          "name": "propertyId",
          "type": "uint256"
        }
      ],
      "name": "unlistProperty",
      "outputs": [],
      "stateMutability": "nonpayable",
      "type": "function"
    }
  ],
  "bytecode": "0x608060405234801561001057600080fd5b506000600181905580546001600160a01b03191633179055610f43806100376000396000f3fe60806040526004361061007b5760003560e01c806385ae60641161004e57806385ae60641461010b57806386dd421b1461012b5780638da5cb5b1461013e578063f7b108081461017657600080fd5b80632780842a146100805780634f493050146100b357806361bc221a146100d5578063841ad8b9146100eb575b600080fd5b34801561008c57600080fd5b506100a061009b36600461094b565b6101ae565b6040519081526020015b60405180910390f35b3480156100bf57600080fd5b506100d36100ce366004610977565b6101f2565b005b3480156100e157600080fd5b506100a060015481565b3480156100f757600080fd5b506100d3610106366004610977565b6102dc565b34801561011757600080fd5b506100a0610126366004610a4e565b61041b565b6100d3610139366004610b25565b610537565b34801561014a57600080fd5b5060005461015e906001600160a01b031681565b6040516001600160a01b0390911681526020016100aa565b34801561018257600080fd5b50610196610191366004610977565b6106a9565b6040516100aa9c9b9a99989796959493929190610ba7565b6000838152600260205260408120816305265c006101cc8686610c8c565b6101d69190610cbb565b90508160060154816101e89190610ccf565b9695505050505050565b600081815260026020526040902060018101548291906001600160a01b0316156102585760405162461bcd60e51b8152602060048201526012602482015271141c9bdc195c9d1e481a5cc8189bdbdad95960721b60448201526064015b60405180910390fd5b60008381526002602052604090205483906001600160a01b03163381146102b75760405162461bcd60e51b815260206004820152601360248201527227b7363c90383937b832b93a3c9037bbb732b960691b604482015260640161024f565b50505060009182525060026020526040902060010180546001600160a01b0319169055565b60008181526002602052604090205481906001600160a01b031633811461033b5760405162461bcd60e51b815260206004820152601360248201527227b7363c90383937b832b93a3c9037bbb732b960691b604482015260640161024f565b600083815260026020526040902060018101548491906001600160a01b03161561039c5760405162461bcd60e51b8152602060048201526012602482015271141c9bdc195c9d1e481a5cc8189bdbdad95960721b604482015260640161024f565b6000858152600260205260409020600881015460ff166104095760405162461bcd60e51b815260206004820152602260248201527f50726f706572747920686173206265656e20616c726561647920756e6c697374604482015261195960f21b606482015260840161024f565b600801805460ff191690555050505050565b6001546000908152600260208190526040822090810161043b8a82610d6f565b506003810161044a8982610d6f565b50600481016104598882610d6f565b50600581016104688782610d6f565b506006810185905560088101805460ff191660019081179091556001600160401b03848116600160c01b026001600160c01b03918716600160801b029190911617600783015581546001600160a01b03199081163317835581830180549091169055546040517fdd84cc9e19f0c3fce0783973a3a8805d3d4da80b5484271cfae2e99c19fbd93991610508918c918c918c918c918c918c918c9190610e2e565b60405180910390a160018060008282546105229190610ead565b90915550506001549998505050505050505050565b60006305265c006105488484610ec0565b6105529190610ee7565b60008581526002602052604090206006015490915061057a906001600160401b038316610ccf565b3410156105ba5760405162461bcd60e51b815260206004820152600e60248201526d29b2b7321036b7b9329022aa241760911b604482015260640161024f565b6000848152600260205260408082205490516001600160a01b03909116913480156108fc02929091818181858888f193505050501580156105ff573d6000803e3d6000fd5b506000848152600260209081526040918290206007810180546001600160401b038881166fffffffffffffffffffffffffffffffff1990921691909117600160401b888316021790915560019091018054336001600160a01b0319909116811790915583518881529283015283168183015234606082015290517f1b22ea716339971edfa4113ba98cc6967858f511577d7d21e921550c0192ccae9181900360800190a150505050565b60026020819052600091825260409091208054600182015492820180546001600160a01b039283169490921692916106e090610ce6565b80601f016020809104026020016040519081016040528092919081815260200182805461070c90610ce6565b80156107595780601f1061072e57610100808354040283529160200191610759565b820191906000526020600020905b81548152906001019060200180831161073c57829003601f168201915b50505050509080600301805461076e90610ce6565b80601f016020809104026020016040519081016040528092919081815260200182805461079a90610ce6565b80156107e75780601f106107bc576101008083540402835291602001916107e7565b820191906000526020600020905b8154815290600101906020018083116107ca57829003601f168201915b5050505050908060040180546107fc90610ce6565b80601f016020809104026020016040519081016040528092919081815260200182805461082890610ce6565b80156108755780601f1061084a57610100808354040283529160200191610875565b820191906000526020600020905b81548152906001019060200180831161085857829003601f168201915b50505050509080600501805461088a90610ce6565b80601f01602080910402602001604051908101604052809291908181526020018280546108b690610ce6565b80156109035780601f106108d857610100808354040283529160200191610903565b820191906000526020600020905b8154815290600101906020018083116108e657829003601f168201915b50505060068401546007850154600890950154939490936001600160401b038083169450600160401b830481169350600160801b8304811692600160c01b9004169060ff168c565b60008060006060848603121561096057600080fd5b505081359360208301359350604090920135919050565b60006020828403121561098957600080fd5b5035919050565b634e487b7160e01b600052604160045260246000fd5b600082601f8301126109b757600080fd5b81356001600160401b03808211156109d1576109d1610990565b604051601f8301601f19908116603f011681019082821181831017156109f9576109f9610990565b81604052838152866020858801011115610a1257600080fd5b836020870160208301376000602085830101528094505050505092915050565b80356001600160401b0381168114610a4957600080fd5b919050565b600080600080600080600060e0888a031215610a6957600080fd5b87356001600160401b0380821115610a8057600080fd5b610a8c8b838c016109a6565b985060208a0135915080821115610aa257600080fd5b610aae8b838c016109a6565b975060408a0135915080821115610ac457600080fd5b610ad08b838c016109a6565b965060608a0135915080821115610ae657600080fd5b50610af38a828b016109a6565b94505060808801359250610b0960a08901610a32565b9150610b1760c08901610a32565b905092959891949750929550565b600080600060608486031215610b3a57600080fd5b83359250610b4a60208501610a32565b9150610b5860408501610a32565b90509250925092565b6000815180845260005b81811015610b8757602081850181015186830182015201610b6b565b506000602082860101526020601f19601f83011685010191505092915050565b6001600160a01b038d811682528c16602082015261018060408201819052600090610bd49083018d610b61565b8281036060840152610be6818d610b61565b90508281036080840152610bfa818c610b61565b905082810360a0840152610c0e818b610b61565b9150508760c0830152610c2c60e08301886001600160401b03169052565b6001600160401b0386166101008301526001600160401b0385166101208301526001600160401b0384166101408301528215156101608301529d9c50505050505050505050505050565b634e487b7160e01b600052601160045260246000fd5b81810381811115610c9f57610c9f610c76565b92915050565b634e487b7160e01b600052601260045260246000fd5b600082610cca57610cca610ca5565b500490565b8082028115828204841417610c9f57610c9f610c76565b600181811c90821680610cfa57607f821691505b602082108103610d1a57634e487b7160e01b600052602260045260246000fd5b50919050565b601f821115610d6a57600081815260208120601f850160051c81016020861015610d475750805b601f850160051c820191505b81811015610d6657828155600101610d53565b5050505b505050565b81516001600160401b03811115610d8857610d88610990565b610d9c81610d968454610ce6565b84610d20565b602080601f831160018114610dd15760008415610db95750858301515b600019600386901b1c1916600185901b178555610d66565b600085815260208120601f198616915b82811015610e0057888601518255948401946001909101908401610de1565b5085821015610e1e5787850151600019600388901b60f8161c191681555b5050505050600190811b01905550565b6000610100808352610e428184018c610b61565b90508281036020840152610e56818b610b61565b90508281036040840152610e6a818a610b61565b90508281036060840152610e7e8189610b61565b608084019790975250506001600160401b0393841660a08201529190921660c082015260e00152949350505050565b80820180821115610c9f57610c9f610c76565b6001600160401b03828116828216039080821115610ee057610ee0610c76565b5092915050565b60006001600160401b0380841680610f0157610f01610ca5565b9216919091049291505056fea2646970667358221220379236cf7b6ce7d8b35ffb4e843a7097a19cbddc60c2cc2f6c1fc969b54175e564736f6c63430008140033",
  "linkReferences": {},
  "deployedLinkReferences": {}
}