{
  "_format": "hh-sol-artifact-1",
  "contractName": "Rent",
  "sourceName": "contracts/Rent.sol",
  "abi": [
    {
      "inputs": [],
      "stateMutability": "nonpayable",
      "type": "constructor"
    },
    {
      "anonymous": false,
      "inputs": [
        {
          "indexed": false,
          "internalType": "uint256",
          "name": "propertyId",
          "type": "uint256"
        },
        {
          "indexed": false,
          "internalType": "address",
          "name": "guest",
          "type": "address"
        },
        {
          "indexed": false,
          "internalType": "uint64",
          "name": "numberOfDays",
          "type": "uint64"
        },
        {
          "indexed": false,
          "internalType": "uint256",
          "name": "price",
          "type": "uint256"
        }
      ],
      "name": "PropertyBookedEvent",
      "type": "event"
    },
    {
      "anonymous": false,
      "inputs": [
        {
          "indexed": false,
          "internalType": "string",
          "name": "name",
          "type": "string"
        },
        {
          "indexed": false,
          "internalType": "string",
          "name": "propertyAddress",
          "type": "string"
        },
        {
          "indexed": false,
          "internalType": "string",
          "name": "description",
          "type": "string"
        },
        {
          "indexed": false,
          "internalType": "string",
          "name": "imgUrl",
          "type": "string"
        },
        {
          "indexed": false,
          "internalType": "uint256",
          "name": "pricePerDay",
          "type": "uint256"
        },
        {
          "indexed": false,
          "internalType": "uint64",
          "name": "numberOfRooms",
          "type": "uint64"
        },
        {
          "indexed": false,
          "internalType": "uint64",
          "name": "area",
          "type": "uint64"
        },
        {
          "indexed": false,
          "internalType": "uint256",
          "name": "propertyId",
          "type": "uint256"
        }
      ],
      "name": "PropertyListedEvent",
      "type": "event"
    },
    {
      "inputs": [
        {
          "internalType": "uint256",
          "name": "propertyId",
          "type": "uint256"
        },
        {
          "internalType": "uint64",
          "name": "startDate",
          "type": "uint64"
        },
        {
          "internalType": "uint64",
          "name": "endDate",
          "type": "uint64"
        }
      ],
      "name": "bookProperty",
      "outputs": [],
      "stateMutability": "payable",
      "type": "function"
    },
    {
      "inputs": [],
      "name": "counter",
      "outputs": [
        {
          "internalType": "uint256",
          "name": "",
          "type": "uint256"
        }
      ],
      "stateMutability": "view",
      "type": "function"
    },
    {
      "inputs": [
        {
          "internalType": "uint256",
          "name": "propertyId",
          "type": "uint256"
        }
      ],
      "name": "getPropertyRentPrice",
      "outputs": [
        {
          "internalType": "uint256",
          "name": "",
          "type": "uint256"
        }
      ],
      "stateMutability": "view",
      "type": "function"
    },
    {
      "inputs": [
        {
          "internalType": "string",
          "name": "name",
          "type": "string"
        },
        {
          "internalType": "string",
          "name": "propertyAddress",
          "type": "string"
        },
        {
          "internalType": "string",
          "name": "description",
          "type": "string"
        },
        {
          "internalType": "string",
          "name": "imgUrl",
          "type": "string"
        },
        {
          "internalType": "uint256",
          "name": "pricePerDay",
          "type": "uint256"
        },
        {
          "internalType": "uint64",
          "name": "numberOfRooms",
          "type": "uint64"
        },
        {
          "internalType": "uint64",
          "name": "area",
          "type": "uint64"
        }
      ],
      "name": "listProperty",
      "outputs": [
        {
          "internalType": "uint256",
          "name": "",
          "type": "uint256"
        }
      ],
      "stateMutability": "nonpayable",
      "type": "function"
    },
    {
      "inputs": [],
      "name": "owner",
      "outputs": [
        {
          "internalType": "address",
          "name": "",
          "type": "address"
        }
      ],
      "stateMutability": "view",
      "type": "function"
    },
    {
      "inputs": [
        {
          "internalType": "uint256",
          "name": "",
          "type": "uint256"
        }
      ],
      "name": "properties",
      "outputs": [
        {
          "internalType": "address",
          "name": "owner",
          "type": "address"
        },
        {
          "internalType": "address",
          "name": "guest",
          "type": "address"
        },
        {
          "internalType": "string",
          "name": "name",
          "type": "string"
        },
        {
          "internalType": "string",
          "name": "propertyAddress",
          "type": "string"
        },
        {
          "internalType": "string",
          "name": "description",
          "type": "string"
        },
        {
          "internalType": "string",
          "name": "imgUrl",
          "type": "string"
        },
        {
          "internalType": "uint256",
          "name": "pricePerDay",
          "type": "uint256"
        },
        {
          "internalType": "uint64",
          "name": "bookingStartsAt",
          "type": "uint64"
        },
        {
          "internalType": "uint64",
          "name": "bookingEndsAt",
          "type": "uint64"
        },
        {
          "internalType": "uint64",
          "name": "numberOfRooms",
          "type": "uint64"
        },
        {
          "internalType": "uint64",
          "name": "area",
          "type": "uint64"
        },
        {
          "internalType": "bool",
          "name": "isActive",
          "type": "bool"
        }
      ],
      "stateMutability": "view",
      "type": "function"
    },
    {
      "inputs": [
        {
          "internalType": "uint256",
          "name": "propertyId",
          "type": "uint256"
        }
      ],
      "name": "unBookPropertyByGuest",
      "outputs": [],
      "stateMutability": "payable",
      "type": "function"
    },
    {
      "inputs": [
        {
          "internalType": "uint256",
          "name": "propertyId",
          "type": "uint256"
        }
      ],
      "name": "unBookPropertyByOwner",
      "outputs": [],
      "stateMutability": "payable",
      "type": "function"
    },
    {
      "inputs": [
        {
          "internalType": "uint256",
          "name": "propertyId",
          "type": "uint256"
        }
      ],
      "name": "unlistProperty",
      "outputs": [],
      "stateMutability": "nonpayable",
      "type": "function"
    }
  ],
  "bytecode": "0x608060405234801561001057600080fd5b506000600181905580546001600160a01b03191633179055611122806100376000396000f3fe6080604052600436106100865760003560e01c806386dd421b1161005957806386dd421b14610116578063876a8f91146101295780638da5cb5b1461013c578063b543cdcf14610174578063f7b108081461018757600080fd5b80632588c8451461008b57806361bc221a146100be578063841ad8b9146100d457806385ae6064146100f6575b600080fd5b34801561009757600080fd5b506100ab6100a6366004610b60565b6101bf565b6040519081526020015b60405180910390f35b3480156100ca57600080fd5b506100ab60015481565b3480156100e057600080fd5b506100f46100ef366004610b60565b610278565b005b34801561010257600080fd5b506100ab610111366004610c37565b6103b5565b6100f4610124366004610d0e565b6104d1565b6100f4610137366004610b60565b6106a3565b34801561014857600080fd5b5060005461015c906001600160a01b031681565b6040516001600160a01b0390911681526020016100b5565b6100f4610182366004610b60565b610766565b34801561019357600080fd5b506101a76101a2366004610b60565b6108be565b6040516100b59c9b9a99989796959493929190610d90565b600081815260026020526040812060018101548391906001600160a01b03166102035760405162461bcd60e51b81526004016101fa90610e5f565b60405180910390fd5b600084815260026020526040812060078101549091906305265c009061023c906001600160401b0380821691600160401b900416610e9a565b6102469190610ec1565b60008781526002602052604090206006015490915061026e906001600160401b038316610ef5565b9695505050505050565b600081815260026020526040902080548291906001600160a01b031633146102d85760405162461bcd60e51b815260206004820152601360248201527227b7363c90383937b832b93a3c9037bbb732b960691b60448201526064016101fa565b600083815260026020526040902060018101548491906001600160a01b0316156103365760405162461bcd60e51b815260206004820152600f60248201526e13db9b1e481b9bdd08189bdbdad959608a1b60448201526064016101fa565b6000858152600260205260409020600881015460ff166103a35760405162461bcd60e51b815260206004820152602260248201527f50726f706572747920686173206265656e20616c726561647920756e6c697374604482015261195960f21b60648201526084016101fa565b600801805460ff191690555050505050565b600154600090815260026020819052604082209081016103d58a82610f9b565b50600381016103e48982610f9b565b50600481016103f38882610f9b565b50600581016104028782610f9b565b506006810185905560088101805460ff191660019081179091556001600160401b03848116600160c01b026001600160c01b03918716600160801b029190911617600783015581546001600160a01b03199081163317835581830180549091169055546040517fdd84cc9e19f0c3fce0783973a3a8805d3d4da80b5484271cfae2e99c19fbd939916104a2918c918c918c918c918c918c918c919061105a565b60405180910390a160018060008282546104bc91906110d9565b90915550506001549998505050505050505050565b600083815260026020526040902060018101548491906001600160a01b03161561052f5760405162461bcd60e51b815260206004820152600f60248201526e13db9b1e481b9bdd08189bdbdad959608a1b60448201526064016101fa565b60006305265c006105408686610e9a565b61054a9190610ec1565b600087815260026020526040902060060154909150610572906001600160401b038316610ef5565b3410156105b25760405162461bcd60e51b815260206004820152600e60248201526d29b2b7321036b7b9329022aa241760911b60448201526064016101fa565b6000868152600260205260408082205490516001600160a01b03909116913480156108fc02929091818181858888f193505050501580156105f7573d6000803e3d6000fd5b506000868152600260209081526040918290206007810180546001600160401b038a81166fffffffffffffffffffffffffffffffff1990921691909117600160401b8a8316021790915560019091018054336001600160a01b0319909116811790915583518a81529283015283168183015234606082015290517f1b22ea716339971edfa4113ba98cc6967858f511577d7d21e921550c0192ccae9181900360800190a1505050505050565b600081815260026020526040902060018101548291906001600160a01b03166106de5760405162461bcd60e51b81526004016101fa90610e5f565b600083815260026020526040902060018101548491906001600160a01b031633146107415760405162461bcd60e51b815260206004820152601360248201527213db9b1e481c1c9bdc195c9d1e4819dd595cdd606a1b60448201526064016101fa565b50505060009182525060026020526040902060010180546001600160a01b0319169055565b600081815260026020526040902060018101548291906001600160a01b03166107a15760405162461bcd60e51b81526004016101fa90610e5f565b600083815260026020526040902080548491906001600160a01b031633146108015760405162461bcd60e51b815260206004820152601360248201527227b7363c90383937b832b93a3c9037bbb732b960691b60448201526064016101fa565b600061080c866101bf565b90508034101561084f5760405162461bcd60e51b815260206004820152600e60248201526d29b2b7321036b7b9329022aa241760911b60448201526064016101fa565b6000868152600260205260408082206001015490516001600160a01b03909116913480156108fc02929091818181858888f19350505050158015610897573d6000803e3d6000fd5b505050600093845250506002602052506040902060010180546001600160a01b0319169055565b60026020819052600091825260409091208054600182015492820180546001600160a01b039283169490921692916108f590610f12565b80601f016020809104026020016040519081016040528092919081815260200182805461092190610f12565b801561096e5780601f106109435761010080835404028352916020019161096e565b820191906000526020600020905b81548152906001019060200180831161095157829003601f168201915b50505050509080600301805461098390610f12565b80601f01602080910402602001604051908101604052809291908181526020018280546109af90610f12565b80156109fc5780601f106109d1576101008083540402835291602001916109fc565b820191906000526020600020905b8154815290600101906020018083116109df57829003601f168201915b505050505090806004018054610a1190610f12565b80601f0160208091040260200160405190810160405280929190818152602001828054610a3d90610f12565b8015610a8a5780601f10610a5f57610100808354040283529160200191610a8a565b820191906000526020600020905b815481529060010190602001808311610a6d57829003601f168201915b505050505090806005018054610a9f90610f12565b80601f0160208091040260200160405190810160405280929190818152602001828054610acb90610f12565b8015610b185780601f10610aed57610100808354040283529160200191610b18565b820191906000526020600020905b815481529060010190602001808311610afb57829003601f168201915b50505060068401546007850154600890950154939490936001600160401b038083169450600160401b830481169350600160801b8304811692600160c01b9004169060ff168c565b600060208284031215610b7257600080fd5b5035919050565b634e487b7160e01b600052604160045260246000fd5b600082601f830112610ba057600080fd5b81356001600160401b0380821115610bba57610bba610b79565b604051601f8301601f19908116603f01168101908282118183101715610be257610be2610b79565b81604052838152866020858801011115610bfb57600080fd5b836020870160208301376000602085830101528094505050505092915050565b80356001600160401b0381168114610c3257600080fd5b919050565b600080600080600080600060e0888a031215610c5257600080fd5b87356001600160401b0380821115610c6957600080fd5b610c758b838c01610b8f565b985060208a0135915080821115610c8b57600080fd5b610c978b838c01610b8f565b975060408a0135915080821115610cad57600080fd5b610cb98b838c01610b8f565b965060608a0135915080821115610ccf57600080fd5b50610cdc8a828b01610b8f565b94505060808801359250610cf260a08901610c1b565b9150610d0060c08901610c1b565b905092959891949750929550565b600080600060608486031215610d2357600080fd5b83359250610d3360208501610c1b565b9150610d4160408501610c1b565b90509250925092565b6000815180845260005b81811015610d7057602081850181015186830182015201610d54565b506000602082860101526020601f19601f83011685010191505092915050565b6001600160a01b038d811682528c16602082015261018060408201819052600090610dbd9083018d610d4a565b8281036060840152610dcf818d610d4a565b90508281036080840152610de3818c610d4a565b905082810360a0840152610df7818b610d4a565b9150508760c0830152610e1560e08301886001600160401b03169052565b6001600160401b0386166101008301526001600160401b0385166101208301526001600160401b0384166101408301528215156101608301529d9c50505050505050505050505050565b6020808252600b908201526a13db9b1e48189bdbdad95960aa1b604082015260600190565b634e487b7160e01b600052601160045260246000fd5b6001600160401b03828116828216039080821115610eba57610eba610e84565b5092915050565b60006001600160401b0380841680610ee957634e487b7160e01b600052601260045260246000fd5b92169190910492915050565b8082028115828204841417610f0c57610f0c610e84565b92915050565b600181811c90821680610f2657607f821691505b602082108103610f4657634e487b7160e01b600052602260045260246000fd5b50919050565b601f821115610f9657600081815260208120601f850160051c81016020861015610f735750805b601f850160051c820191505b81811015610f9257828155600101610f7f565b5050505b505050565b81516001600160401b03811115610fb457610fb4610b79565b610fc881610fc28454610f12565b84610f4c565b602080601f831160018114610ffd5760008415610fe55750858301515b600019600386901b1c1916600185901b178555610f92565b600085815260208120601f198616915b8281101561102c5788860151825594840194600190910190840161100d565b508582101561104a5787850151600019600388901b60f8161c191681555b5050505050600190811b01905550565b600061010080835261106e8184018c610d4a565b90508281036020840152611082818b610d4a565b90508281036040840152611096818a610d4a565b905082810360608401526110aa8189610d4a565b608084019790975250506001600160401b0393841660a08201529190921660c082015260e00152949350505050565b80820180821115610f0c57610f0c610e8456fea2646970667358221220b4f7eb85765d7aef42fd58ca23385f07a5ae204fb559a2363794516f101d622164736f6c63430008140033",
  "linkReferences": {},
  "deployedLinkReferences": {}
}