{
  "_format": "hh-sol-artifact-1",
  "contractName": "Rent",
  "sourceName": "contracts/Rent.sol",
  "abi": [
    {
      "inputs": [],
      "stateMutability": "nonpayable",
      "type": "constructor"
    },
    {
      "inputs": [
        {
          "internalType": "address",
          "name": "owner",
          "type": "address"
        }
      ],
      "name": "OwnableInvalidOwner",
      "type": "error"
    },
    {
      "inputs": [
        {
          "internalType": "address",
          "name": "account",
          "type": "address"
        }
      ],
      "name": "OwnableUnauthorizedAccount",
      "type": "error"
    },
    {
      "anonymous": false,
      "inputs": [
        {
          "indexed": true,
          "internalType": "address",
          "name": "previousOwner",
          "type": "address"
        },
        {
          "indexed": true,
          "internalType": "address",
          "name": "newOwner",
          "type": "address"
        }
      ],
      "name": "OwnershipTransferred",
      "type": "event"
    },
    {
      "anonymous": false,
      "inputs": [
        {
          "indexed": false,
          "internalType": "uint256",
          "name": "propertyId",
          "type": "uint256"
        },
        {
          "indexed": false,
          "internalType": "address",
          "name": "guest",
          "type": "address"
        },
        {
          "indexed": false,
          "internalType": "uint64",
          "name": "numberOfDays",
          "type": "uint64"
        },
        {
          "indexed": false,
          "internalType": "uint256",
          "name": "price",
          "type": "uint256"
        }
      ],
      "name": "PropertyBookedEvent",
      "type": "event"
    },
    {
      "anonymous": false,
      "inputs": [
        {
          "indexed": false,
          "internalType": "string",
          "name": "name",
          "type": "string"
        },
        {
          "indexed": false,
          "internalType": "string",
          "name": "propertyAddress",
          "type": "string"
        },
        {
          "indexed": false,
          "internalType": "string",
          "name": "description",
          "type": "string"
        },
        {
          "indexed": false,
          "internalType": "string",
          "name": "imgUrl",
          "type": "string"
        },
        {
          "indexed": false,
          "internalType": "uint256",
          "name": "pricePerDay",
          "type": "uint256"
        },
        {
          "indexed": false,
          "internalType": "uint64",
          "name": "numberOfRooms",
          "type": "uint64"
        },
        {
          "indexed": false,
          "internalType": "uint64",
          "name": "area",
          "type": "uint64"
        },
        {
          "indexed": false,
          "internalType": "uint256",
          "name": "propertyId",
          "type": "uint256"
        }
      ],
      "name": "PropertyListedEvent",
      "type": "event"
    },
    {
      "inputs": [
        {
          "internalType": "address",
          "name": "user",
          "type": "address"
        }
      ],
      "name": "addUserToWhitelist",
      "outputs": [],
      "stateMutability": "nonpayable",
      "type": "function"
    },
    {
      "inputs": [
        {
          "internalType": "uint256",
          "name": "propertyId",
          "type": "uint256"
        },
        {
          "internalType": "uint64",
          "name": "startDate",
          "type": "uint64"
        },
        {
          "internalType": "uint64",
          "name": "endDate",
          "type": "uint64"
        }
      ],
      "name": "bookProperty",
      "outputs": [],
      "stateMutability": "payable",
      "type": "function"
    },
    {
      "inputs": [],
      "name": "counter",
      "outputs": [
        {
          "internalType": "uint256",
          "name": "",
          "type": "uint256"
        }
      ],
      "stateMutability": "view",
      "type": "function"
    },
    {
      "inputs": [
        {
          "internalType": "uint256",
          "name": "id",
          "type": "uint256"
        },
        {
          "internalType": "uint256",
          "name": "startDate",
          "type": "uint256"
        },
        {
          "internalType": "uint256",
          "name": "endDate",
          "type": "uint256"
        }
      ],
      "name": "getDuePrice",
      "outputs": [
        {
          "internalType": "uint256",
          "name": "",
          "type": "uint256"
        }
      ],
      "stateMutability": "view",
      "type": "function"
    },
    {
      "inputs": [
        {
          "internalType": "uint256",
          "name": "propertyId",
          "type": "uint256"
        }
      ],
      "name": "getPropertyRentPrice",
      "outputs": [
        {
          "internalType": "uint256",
          "name": "",
          "type": "uint256"
        }
      ],
      "stateMutability": "view",
      "type": "function"
    },
    {
      "inputs": [
        {
          "internalType": "string",
          "name": "name",
          "type": "string"
        },
        {
          "internalType": "string",
          "name": "propertyAddress",
          "type": "string"
        },
        {
          "internalType": "string",
          "name": "description",
          "type": "string"
        },
        {
          "internalType": "string",
          "name": "imgUrl",
          "type": "string"
        },
        {
          "internalType": "uint256",
          "name": "pricePerDay",
          "type": "uint256"
        },
        {
          "internalType": "uint64",
          "name": "numberOfRooms",
          "type": "uint64"
        },
        {
          "internalType": "uint64",
          "name": "area",
          "type": "uint64"
        }
      ],
      "name": "listProperty",
      "outputs": [
        {
          "internalType": "uint256",
          "name": "",
          "type": "uint256"
        }
      ],
      "stateMutability": "nonpayable",
      "type": "function"
    },
    {
      "inputs": [],
      "name": "owner",
      "outputs": [
        {
          "internalType": "address",
          "name": "",
          "type": "address"
        }
      ],
      "stateMutability": "view",
      "type": "function"
    },
    {
      "inputs": [
        {
          "internalType": "uint256",
          "name": "",
          "type": "uint256"
        }
      ],
      "name": "properties",
      "outputs": [
        {
          "internalType": "address",
          "name": "owner",
          "type": "address"
        },
        {
          "internalType": "address",
          "name": "guest",
          "type": "address"
        },
        {
          "internalType": "string",
          "name": "name",
          "type": "string"
        },
        {
          "internalType": "string",
          "name": "propertyAddress",
          "type": "string"
        },
        {
          "internalType": "string",
          "name": "description",
          "type": "string"
        },
        {
          "internalType": "string",
          "name": "imgUrl",
          "type": "string"
        },
        {
          "internalType": "uint256",
          "name": "pricePerDay",
          "type": "uint256"
        },
        {
          "internalType": "uint64",
          "name": "bookingStartsAt",
          "type": "uint64"
        },
        {
          "internalType": "uint64",
          "name": "bookingEndsAt",
          "type": "uint64"
        },
        {
          "internalType": "uint64",
          "name": "numberOfRooms",
          "type": "uint64"
        },
        {
          "internalType": "uint64",
          "name": "area",
          "type": "uint64"
        },
        {
          "internalType": "bool",
          "name": "isActive",
          "type": "bool"
        }
      ],
      "stateMutability": "view",
      "type": "function"
    },
    {
      "inputs": [],
      "name": "renounceOwnership",
      "outputs": [],
      "stateMutability": "nonpayable",
      "type": "function"
    },
    {
      "inputs": [
        {
          "internalType": "address",
          "name": "newOwner",
          "type": "address"
        }
      ],
      "name": "transferOwnership",
      "outputs": [],
      "stateMutability": "nonpayable",
      "type": "function"
    },
    {
      "inputs": [
        {
          "internalType": "uint256",
          "name": "propertyId",
          "type": "uint256"
        }
      ],
      "name": "unBookPropertyByGuest",
      "outputs": [],
      "stateMutability": "payable",
      "type": "function"
    },
    {
      "inputs": [
        {
          "internalType": "uint256",
          "name": "propertyId",
          "type": "uint256"
        }
      ],
      "name": "unBookPropertyByOwner",
      "outputs": [],
      "stateMutability": "payable",
      "type": "function"
    },
    {
      "inputs": [
        {
          "internalType": "uint256",
          "name": "propertyId",
          "type": "uint256"
        }
      ],
      "name": "unlistProperty",
      "outputs": [],
      "stateMutability": "nonpayable",
      "type": "function"
    },
    {
      "inputs": [
        {
          "internalType": "address",
          "name": "",
          "type": "address"
        }
      ],
      "name": "whitelist",
      "outputs": [
        {
          "internalType": "bool",
          "name": "",
          "type": "bool"
        }
      ],
      "stateMutability": "view",
      "type": "function"
    }
  ],
  "bytecode": "0x608060405234801561001057600080fd5b50338061003757604051631e4fbdf760e01b81526000600482015260240160405180910390fd5b6100408161004b565b50600060015561009b565b600080546001600160a01b038381166001600160a01b0319831681178455604051919092169283917f8be0079c531659141344cd1fd0a4f28419497f9722a3daafe3b4186f6b6457e09190a35050565b6113ae806100aa6000396000f3fe6080604052600436106100dd5760003560e01c806386dd421b1161007f5780639b19251a116100595780639b19251a14610210578063b543cdcf14610250578063f2fde38b14610263578063f7b108081461028357600080fd5b806386dd421b146101c2578063876a8f91146101d55780638da5cb5b146101e857600080fd5b8063715018a6116100bb578063715018a61461014b578063747b805014610162578063841ad8b91461018257806385ae6064146101a257600080fd5b80632588c845146100e25780632780842a1461011557806361bc221a14610135575b600080fd5b3480156100ee57600080fd5b506101026100fd366004610d61565b6102bb565b6040519081526020015b60405180910390f35b34801561012157600080fd5b50610102610130366004610d7a565b61033a565b34801561014157600080fd5b5061010260015481565b34801561015757600080fd5b5061016061037e565b005b34801561016e57600080fd5b5061016061017d366004610da6565b610392565b34801561018e57600080fd5b5061016061019d366004610d61565b6103be565b3480156101ae57600080fd5b506101026101bd366004610e94565b6104fb565b6101606101d0366004610f6b565b610617565b6101606101e3366004610d61565b6107e9565b3480156101f457600080fd5b506000546040516001600160a01b03909116815260200161010c565b34801561021c57600080fd5b5061024061022b366004610da6565b60036020526000908152604090205460ff1681565b604051901515815260200161010c565b61016061025e366004610d61565b6108ac565b34801561026f57600080fd5b5061016061027e366004610da6565b610a04565b34801561028f57600080fd5b506102a361029e366004610d61565b610a42565b60405161010c9c9b9a99989796959493929190610fed565b600081815260026020526040812060018101548391906001600160a01b03166102ff5760405162461bcd60e51b81526004016102f6906110bc565b60405180910390fd5b600084815260026020526040902060078101546103319086906001600160401b0380821691600160401b90041661033a565b95945050505050565b6000838152600260205260408120816305265c0061035886866110f7565b6103629190611126565b9050816006015481610374919061113a565b9695505050505050565b610386610ce4565b6103906000610d11565b565b61039a610ce4565b6001600160a01b03166000908152600360205260409020805460ff19166001179055565b600081815260026020526040902080548291906001600160a01b0316331461041e5760405162461bcd60e51b815260206004820152601360248201527227b7363c90383937b832b93a3c9037bbb732b960691b60448201526064016102f6565b600083815260026020526040902060018101548491906001600160a01b03161561047c5760405162461bcd60e51b815260206004820152600f60248201526e13db9b1e481b9bdd08189bdbdad959608a1b60448201526064016102f6565b6000858152600260205260409020600881015460ff166104e95760405162461bcd60e51b815260206004820152602260248201527f50726f706572747920686173206265656e20616c726561647920756e6c697374604482015261195960f21b60648201526084016102f6565b600801805460ff191690555050505050565b6001546000908152600260208190526040822090810161051b8a826111da565b506003810161052a89826111da565b506004810161053988826111da565b506005810161054887826111da565b506006810185905560088101805460ff191660019081179091556001600160401b03848116600160c01b026001600160c01b03918716600160801b029190911617600783015581546001600160a01b03199081163317835581830180549091169055546040517fdd84cc9e19f0c3fce0783973a3a8805d3d4da80b5484271cfae2e99c19fbd939916105e8918c918c918c918c918c918c918c9190611299565b60405180910390a160018060008282546106029190611318565b90915550506001549998505050505050505050565b600083815260026020526040902060018101548491906001600160a01b0316156106755760405162461bcd60e51b815260206004820152600f60248201526e13db9b1e481b9bdd08189bdbdad959608a1b60448201526064016102f6565b60006305265c00610686868661132b565b6106909190611352565b6000878152600260205260409020600601549091506106b8906001600160401b03831661113a565b3410156106f85760405162461bcd60e51b815260206004820152600e60248201526d29b2b7321036b7b9329022aa241760911b60448201526064016102f6565b6000868152600260205260408082205490516001600160a01b03909116913480156108fc02929091818181858888f1935050505015801561073d573d6000803e3d6000fd5b506000868152600260209081526040918290206007810180546001600160401b038a81166fffffffffffffffffffffffffffffffff1990921691909117600160401b8a8316021790915560019091018054336001600160a01b0319909116811790915583518a81529283015283168183015234606082015290517f1b22ea716339971edfa4113ba98cc6967858f511577d7d21e921550c0192ccae9181900360800190a1505050505050565b600081815260026020526040902060018101548291906001600160a01b03166108245760405162461bcd60e51b81526004016102f6906110bc565b600083815260026020526040902060018101548491906001600160a01b031633146108875760405162461bcd60e51b815260206004820152601360248201527213db9b1e481c1c9bdc195c9d1e4819dd595cdd606a1b60448201526064016102f6565b50505060009182525060026020526040902060010180546001600160a01b0319169055565b600081815260026020526040902060018101548291906001600160a01b03166108e75760405162461bcd60e51b81526004016102f6906110bc565b600083815260026020526040902080548491906001600160a01b031633146109475760405162461bcd60e51b815260206004820152601360248201527227b7363c90383937b832b93a3c9037bbb732b960691b60448201526064016102f6565b6000610952866102bb565b9050803410156109955760405162461bcd60e51b815260206004820152600e60248201526d29b2b7321036b7b9329022aa241760911b60448201526064016102f6565b6000868152600260205260408082206001015490516001600160a01b03909116913480156108fc02929091818181858888f193505050501580156109dd573d6000803e3d6000fd5b505050600093845250506002602052506040902060010180546001600160a01b0319169055565b610a0c610ce4565b6001600160a01b038116610a3657604051631e4fbdf760e01b8152600060048201526024016102f6565b610a3f81610d11565b50565b60026020819052600091825260409091208054600182015492820180546001600160a01b03928316949092169291610a7990611151565b80601f0160208091040260200160405190810160405280929190818152602001828054610aa590611151565b8015610af25780601f10610ac757610100808354040283529160200191610af2565b820191906000526020600020905b815481529060010190602001808311610ad557829003601f168201915b505050505090806003018054610b0790611151565b80601f0160208091040260200160405190810160405280929190818152602001828054610b3390611151565b8015610b805780601f10610b5557610100808354040283529160200191610b80565b820191906000526020600020905b815481529060010190602001808311610b6357829003601f168201915b505050505090806004018054610b9590611151565b80601f0160208091040260200160405190810160405280929190818152602001828054610bc190611151565b8015610c0e5780601f10610be357610100808354040283529160200191610c0e565b820191906000526020600020905b815481529060010190602001808311610bf157829003601f168201915b505050505090806005018054610c2390611151565b80601f0160208091040260200160405190810160405280929190818152602001828054610c4f90611151565b8015610c9c5780601f10610c7157610100808354040283529160200191610c9c565b820191906000526020600020905b815481529060010190602001808311610c7f57829003601f168201915b50505060068401546007850154600890950154939490936001600160401b038083169450600160401b830481169350600160801b8304811692600160c01b9004169060ff168c565b6000546001600160a01b031633146103905760405163118cdaa760e01b81523360048201526024016102f6565b600080546001600160a01b038381166001600160a01b0319831681178455604051919092169283917f8be0079c531659141344cd1fd0a4f28419497f9722a3daafe3b4186f6b6457e09190a35050565b600060208284031215610d7357600080fd5b5035919050565b600080600060608486031215610d8f57600080fd5b505081359360208301359350604090920135919050565b600060208284031215610db857600080fd5b81356001600160a01b0381168114610dcf57600080fd5b9392505050565b634e487b7160e01b600052604160045260246000fd5b600082601f830112610dfd57600080fd5b81356001600160401b0380821115610e1757610e17610dd6565b604051601f8301601f19908116603f01168101908282118183101715610e3f57610e3f610dd6565b81604052838152866020858801011115610e5857600080fd5b836020870160208301376000602085830101528094505050505092915050565b80356001600160401b0381168114610e8f57600080fd5b919050565b600080600080600080600060e0888a031215610eaf57600080fd5b87356001600160401b0380821115610ec657600080fd5b610ed28b838c01610dec565b985060208a0135915080821115610ee857600080fd5b610ef48b838c01610dec565b975060408a0135915080821115610f0a57600080fd5b610f168b838c01610dec565b965060608a0135915080821115610f2c57600080fd5b50610f398a828b01610dec565b94505060808801359250610f4f60a08901610e78565b9150610f5d60c08901610e78565b905092959891949750929550565b600080600060608486031215610f8057600080fd5b83359250610f9060208501610e78565b9150610f9e60408501610e78565b90509250925092565b6000815180845260005b81811015610fcd57602081850181015186830182015201610fb1565b506000602082860101526020601f19601f83011685010191505092915050565b6001600160a01b038d811682528c1660208201526101806040820181905260009061101a9083018d610fa7565b828103606084015261102c818d610fa7565b90508281036080840152611040818c610fa7565b905082810360a0840152611054818b610fa7565b9150508760c083015261107260e08301886001600160401b03169052565b6001600160401b0386166101008301526001600160401b0385166101208301526001600160401b0384166101408301528215156101608301529d9c50505050505050505050505050565b6020808252600b908201526a13db9b1e48189bdbdad95960aa1b604082015260600190565b634e487b7160e01b600052601160045260246000fd5b8181038181111561110a5761110a6110e1565b92915050565b634e487b7160e01b600052601260045260246000fd5b60008261113557611135611110565b500490565b808202811582820484141761110a5761110a6110e1565b600181811c9082168061116557607f821691505b60208210810361118557634e487b7160e01b600052602260045260246000fd5b50919050565b601f8211156111d557600081815260208120601f850160051c810160208610156111b25750805b601f850160051c820191505b818110156111d1578281556001016111be565b5050505b505050565b81516001600160401b038111156111f3576111f3610dd6565b611207816112018454611151565b8461118b565b602080601f83116001811461123c57600084156112245750858301515b600019600386901b1c1916600185901b1785556111d1565b600085815260208120601f198616915b8281101561126b5788860151825594840194600190910190840161124c565b50858210156112895787850151600019600388901b60f8161c191681555b5050505050600190811b01905550565b60006101008083526112ad8184018c610fa7565b905082810360208401526112c1818b610fa7565b905082810360408401526112d5818a610fa7565b905082810360608401526112e98189610fa7565b608084019790975250506001600160401b0393841660a08201529190921660c082015260e00152949350505050565b8082018082111561110a5761110a6110e1565b6001600160401b0382811682821603908082111561134b5761134b6110e1565b5092915050565b60006001600160401b038084168061136c5761136c611110565b9216919091049291505056fea264697066735822122087312600e0c45ff0b6fdc8c63b726cf103707f9bcb796eded76c734627b6b34364736f6c63430008140033",
  "linkReferences": {},
  "deployedLinkReferences": {}
}