{
  "_format": "hh-sol-artifact-1",
  "contractName": "Rent",
  "sourceName": "contracts/Rent.sol",
  "abi": [
    {
      "inputs": [],
      "stateMutability": "nonpayable",
      "type": "constructor"
    },
    {
      "inputs": [
        {
          "internalType": "address",
          "name": "owner",
          "type": "address"
        }
      ],
      "name": "OwnableInvalidOwner",
      "type": "error"
    },
    {
      "inputs": [
        {
          "internalType": "address",
          "name": "account",
          "type": "address"
        }
      ],
      "name": "OwnableUnauthorizedAccount",
      "type": "error"
    },
    {
      "anonymous": false,
      "inputs": [
        {
          "indexed": true,
          "internalType": "address",
          "name": "previousOwner",
          "type": "address"
        },
        {
          "indexed": true,
          "internalType": "address",
          "name": "newOwner",
          "type": "address"
        }
      ],
      "name": "OwnershipTransferred",
      "type": "event"
    },
    {
      "anonymous": false,
      "inputs": [
        {
          "indexed": false,
          "internalType": "uint256",
          "name": "propertyId",
          "type": "uint256"
        },
        {
          "indexed": false,
          "internalType": "address",
          "name": "guest",
          "type": "address"
        },
        {
          "indexed": false,
          "internalType": "uint64",
          "name": "numberOfDays",
          "type": "uint64"
        },
        {
          "indexed": false,
          "internalType": "uint256",
          "name": "price",
          "type": "uint256"
        }
      ],
      "name": "PropertyBookedEvent",
      "type": "event"
    },
    {
      "anonymous": false,
      "inputs": [
        {
          "indexed": false,
          "internalType": "string",
          "name": "name",
          "type": "string"
        },
        {
          "indexed": false,
          "internalType": "string",
          "name": "propertyAddress",
          "type": "string"
        },
        {
          "indexed": false,
          "internalType": "string",
          "name": "description",
          "type": "string"
        },
        {
          "indexed": false,
          "internalType": "string",
          "name": "imgUrl",
          "type": "string"
        },
        {
          "indexed": false,
          "internalType": "uint256",
          "name": "pricePerDay",
          "type": "uint256"
        },
        {
          "indexed": false,
          "internalType": "uint64",
          "name": "numberOfRooms",
          "type": "uint64"
        },
        {
          "indexed": false,
          "internalType": "uint64",
          "name": "area",
          "type": "uint64"
        },
        {
          "indexed": false,
          "internalType": "uint256",
          "name": "propertyId",
          "type": "uint256"
        }
      ],
      "name": "PropertyListedEvent",
      "type": "event"
    },
    {
      "inputs": [
        {
          "internalType": "address",
          "name": "user",
          "type": "address"
        }
      ],
      "name": "addUserToWhitelist",
      "outputs": [],
      "stateMutability": "nonpayable",
      "type": "function"
    },
    {
      "inputs": [
        {
          "internalType": "uint256",
          "name": "propertyId",
          "type": "uint256"
        },
        {
          "internalType": "uint64",
          "name": "startDate",
          "type": "uint64"
        },
        {
          "internalType": "uint64",
          "name": "endDate",
          "type": "uint64"
        }
      ],
      "name": "bookProperty",
      "outputs": [],
      "stateMutability": "payable",
      "type": "function"
    },
    {
      "inputs": [],
      "name": "counter",
      "outputs": [
        {
          "internalType": "uint256",
          "name": "",
          "type": "uint256"
        }
      ],
      "stateMutability": "view",
      "type": "function"
    },
    {
      "inputs": [
        {
          "internalType": "uint256",
          "name": "id",
          "type": "uint256"
        },
        {
          "internalType": "uint256",
          "name": "startDate",
          "type": "uint256"
        },
        {
          "internalType": "uint256",
          "name": "endDate",
          "type": "uint256"
        }
      ],
      "name": "getDuePrice",
      "outputs": [
        {
          "internalType": "uint256",
          "name": "",
          "type": "uint256"
        }
      ],
      "stateMutability": "view",
      "type": "function"
    },
    {
      "inputs": [
        {
          "internalType": "uint256",
          "name": "propertyId",
          "type": "uint256"
        }
      ],
      "name": "getPropertyRentPrice",
      "outputs": [
        {
          "internalType": "uint256",
          "name": "",
          "type": "uint256"
        }
      ],
      "stateMutability": "view",
      "type": "function"
    },
    {
      "inputs": [
        {
          "internalType": "string",
          "name": "name",
          "type": "string"
        },
        {
          "internalType": "string",
          "name": "propertyAddress",
          "type": "string"
        },
        {
          "internalType": "string",
          "name": "description",
          "type": "string"
        },
        {
          "internalType": "string",
          "name": "imgUrl",
          "type": "string"
        },
        {
          "internalType": "uint256",
          "name": "pricePerDay",
          "type": "uint256"
        },
        {
          "internalType": "uint64",
          "name": "numberOfRooms",
          "type": "uint64"
        },
        {
          "internalType": "uint64",
          "name": "area",
          "type": "uint64"
        }
      ],
      "name": "listProperty",
      "outputs": [
        {
          "internalType": "uint256",
          "name": "",
          "type": "uint256"
        }
      ],
      "stateMutability": "nonpayable",
      "type": "function"
    },
    {
      "inputs": [],
      "name": "owner",
      "outputs": [
        {
          "internalType": "address",
          "name": "",
          "type": "address"
        }
      ],
      "stateMutability": "view",
      "type": "function"
    },
    {
      "inputs": [
        {
          "internalType": "uint256",
          "name": "",
          "type": "uint256"
        }
      ],
      "name": "properties",
      "outputs": [
        {
          "internalType": "address",
          "name": "owner",
          "type": "address"
        },
        {
          "internalType": "address",
          "name": "guest",
          "type": "address"
        },
        {
          "internalType": "string",
          "name": "name",
          "type": "string"
        },
        {
          "internalType": "string",
          "name": "propertyAddress",
          "type": "string"
        },
        {
          "internalType": "string",
          "name": "description",
          "type": "string"
        },
        {
          "internalType": "string",
          "name": "imgUrl",
          "type": "string"
        },
        {
          "internalType": "uint256",
          "name": "pricePerDay",
          "type": "uint256"
        },
        {
          "internalType": "uint64",
          "name": "bookingStartsAt",
          "type": "uint64"
        },
        {
          "internalType": "uint64",
          "name": "bookingEndsAt",
          "type": "uint64"
        },
        {
          "internalType": "uint64",
          "name": "numberOfRooms",
          "type": "uint64"
        },
        {
          "internalType": "uint64",
          "name": "area",
          "type": "uint64"
        },
        {
          "internalType": "bool",
          "name": "isActive",
          "type": "bool"
        }
      ],
      "stateMutability": "view",
      "type": "function"
    },
    {
      "inputs": [],
      "name": "renounceOwnership",
      "outputs": [],
      "stateMutability": "nonpayable",
      "type": "function"
    },
    {
      "inputs": [
        {
          "internalType": "address",
          "name": "newOwner",
          "type": "address"
        }
      ],
      "name": "transferOwnership",
      "outputs": [],
      "stateMutability": "nonpayable",
      "type": "function"
    },
    {
      "inputs": [
        {
          "internalType": "uint256",
          "name": "propertyId",
          "type": "uint256"
        }
      ],
      "name": "unBookPropertyByGuest",
      "outputs": [],
      "stateMutability": "payable",
      "type": "function"
    },
    {
      "inputs": [
        {
          "internalType": "uint256",
          "name": "propertyId",
          "type": "uint256"
        }
      ],
      "name": "unBookPropertyByOwner",
      "outputs": [],
      "stateMutability": "payable",
      "type": "function"
    },
    {
      "inputs": [
        {
          "internalType": "uint256",
          "name": "propertyId",
          "type": "uint256"
        }
      ],
      "name": "unlistProperty",
      "outputs": [],
      "stateMutability": "nonpayable",
      "type": "function"
    },
    {
      "inputs": [
        {
          "internalType": "address",
          "name": "",
          "type": "address"
        }
      ],
      "name": "whitelist",
      "outputs": [
        {
          "internalType": "bool",
          "name": "",
          "type": "bool"
        }
      ],
      "stateMutability": "view",
      "type": "function"
    }
  ],
  "bytecode": "0x608060405234801561001057600080fd5b50338061003757604051631e4fbdf760e01b81526000600482015260240160405180910390fd5b61004081610065565b506000600181815533825260036020526040909120805460ff191690911790556100b5565b600080546001600160a01b038381166001600160a01b0319831681178455604051919092169283917f8be0079c531659141344cd1fd0a4f28419497f9722a3daafe3b4186f6b6457e09190a35050565b611453806100c46000396000f3fe6080604052600436106100dd5760003560e01c806386dd421b1161007f5780639b19251a116100595780639b19251a14610210578063b543cdcf14610250578063f2fde38b14610263578063f7b108081461028357600080fd5b806386dd421b146101c2578063876a8f91146101d55780638da5cb5b146101e857600080fd5b8063715018a6116100bb578063715018a61461014b578063747b805014610162578063841ad8b91461018257806385ae6064146101a257600080fd5b80632588c845146100e25780632780842a1461011557806361bc221a14610135575b600080fd5b3480156100ee57600080fd5b506101026100fd366004610e06565b6102bb565b6040519081526020015b60405180910390f35b34801561012157600080fd5b50610102610130366004610e1f565b61033a565b34801561014157600080fd5b5061010260015481565b34801561015757600080fd5b5061016061037e565b005b34801561016e57600080fd5b5061016061017d366004610e4b565b610392565b34801561018e57600080fd5b5061016061019d366004610e06565b6103be565b3480156101ae57600080fd5b506101026101bd366004610f39565b6104fb565b6101606101d0366004611010565b61066a565b6101606101e3366004610e06565b61088e565b3480156101f457600080fd5b506000546040516001600160a01b03909116815260200161010c565b34801561021c57600080fd5b5061024061022b366004610e4b565b60036020526000908152604090205460ff1681565b604051901515815260200161010c565b61016061025e366004610e06565b610951565b34801561026f57600080fd5b5061016061027e366004610e4b565b610aa9565b34801561028f57600080fd5b506102a361029e366004610e06565b610ae7565b60405161010c9c9b9a99989796959493929190611092565b600081815260026020526040812060018101548391906001600160a01b03166102ff5760405162461bcd60e51b81526004016102f690611161565b60405180910390fd5b600084815260026020526040902060078101546103319086906001600160401b0380821691600160401b90041661033a565b95945050505050565b6000838152600260205260408120816305265c00610358868661119c565b61036291906111cb565b905081600601548161037491906111df565b9695505050505050565b610386610d89565b6103906000610db6565b565b61039a610d89565b6001600160a01b03166000908152600360205260409020805460ff19166001179055565b600081815260026020526040902080548291906001600160a01b0316331461041e5760405162461bcd60e51b815260206004820152601360248201527227b7363c90383937b832b93a3c9037bbb732b960691b60448201526064016102f6565b600083815260026020526040902060018101548491906001600160a01b03161561047c5760405162461bcd60e51b815260206004820152600f60248201526e13db9b1e481b9bdd08189bdbdad959608a1b60448201526064016102f6565b6000858152600260205260409020600881015460ff166104e95760405162461bcd60e51b815260206004820152602260248201527f50726f706572747920686173206265656e20616c726561647920756e6c697374604482015261195960f21b60648201526084016102f6565b600801805460ff191690555050505050565b3360009081526003602052604081205460ff1661054d5760405162461bcd60e51b815260206004820152601060248201526f13db9b1e481dda1a5d195b1a5cdd195960821b60448201526064016102f6565b600154600090815260026020819052604090912090810161056e8a8261127f565b506003810161057d898261127f565b506004810161058c888261127f565b506005810161059b878261127f565b506006810185905560088101805460ff191660019081179091556001600160401b03848116600160c01b026001600160c01b03918716600160801b029190911617600783015581546001600160a01b03199081163317835581830180549091169055546040517fdd84cc9e19f0c3fce0783973a3a8805d3d4da80b5484271cfae2e99c19fbd9399161063b918c918c918c918c918c918c918c919061133e565b60405180910390a1600180600082825461065591906113bd565b90915550506001549998505050505050505050565b600083815260026020526040902060018101548491906001600160a01b0316156106c85760405162461bcd60e51b815260206004820152600f60248201526e13db9b1e481b9bdd08189bdbdad959608a1b60448201526064016102f6565b3360009081526003602052604090205460ff1661071a5760405162461bcd60e51b815260206004820152601060248201526f13db9b1e481dda1a5d195b1a5cdd195960821b60448201526064016102f6565b60006305265c0061072b86866113d0565b61073591906113f7565b60008781526002602052604090206006015490915061075d906001600160401b0383166111df565b34101561079d5760405162461bcd60e51b815260206004820152600e60248201526d29b2b7321036b7b9329022aa241760911b60448201526064016102f6565b6000868152600260205260408082205490516001600160a01b03909116913480156108fc02929091818181858888f193505050501580156107e2573d6000803e3d6000fd5b506000868152600260209081526040918290206007810180546001600160401b038a81166fffffffffffffffffffffffffffffffff1990921691909117600160401b8a8316021790915560019091018054336001600160a01b0319909116811790915583518a81529283015283168183015234606082015290517f1b22ea716339971edfa4113ba98cc6967858f511577d7d21e921550c0192ccae9181900360800190a1505050505050565b600081815260026020526040902060018101548291906001600160a01b03166108c95760405162461bcd60e51b81526004016102f690611161565b600083815260026020526040902060018101548491906001600160a01b0316331461092c5760405162461bcd60e51b815260206004820152601360248201527213db9b1e481c1c9bdc195c9d1e4819dd595cdd606a1b60448201526064016102f6565b50505060009182525060026020526040902060010180546001600160a01b0319169055565b600081815260026020526040902060018101548291906001600160a01b031661098c5760405162461bcd60e51b81526004016102f690611161565b600083815260026020526040902080548491906001600160a01b031633146109ec5760405162461bcd60e51b815260206004820152601360248201527227b7363c90383937b832b93a3c9037bbb732b960691b60448201526064016102f6565b60006109f7866102bb565b905080341015610a3a5760405162461bcd60e51b815260206004820152600e60248201526d29b2b7321036b7b9329022aa241760911b60448201526064016102f6565b6000868152600260205260408082206001015490516001600160a01b03909116913480156108fc02929091818181858888f19350505050158015610a82573d6000803e3d6000fd5b505050600093845250506002602052506040902060010180546001600160a01b0319169055565b610ab1610d89565b6001600160a01b038116610adb57604051631e4fbdf760e01b8152600060048201526024016102f6565b610ae481610db6565b50565b60026020819052600091825260409091208054600182015492820180546001600160a01b03928316949092169291610b1e906111f6565b80601f0160208091040260200160405190810160405280929190818152602001828054610b4a906111f6565b8015610b975780601f10610b6c57610100808354040283529160200191610b97565b820191906000526020600020905b815481529060010190602001808311610b7a57829003601f168201915b505050505090806003018054610bac906111f6565b80601f0160208091040260200160405190810160405280929190818152602001828054610bd8906111f6565b8015610c255780601f10610bfa57610100808354040283529160200191610c25565b820191906000526020600020905b815481529060010190602001808311610c0857829003601f168201915b505050505090806004018054610c3a906111f6565b80601f0160208091040260200160405190810160405280929190818152602001828054610c66906111f6565b8015610cb35780601f10610c8857610100808354040283529160200191610cb3565b820191906000526020600020905b815481529060010190602001808311610c9657829003601f168201915b505050505090806005018054610cc8906111f6565b80601f0160208091040260200160405190810160405280929190818152602001828054610cf4906111f6565b8015610d415780601f10610d1657610100808354040283529160200191610d41565b820191906000526020600020905b815481529060010190602001808311610d2457829003601f168201915b50505060068401546007850154600890950154939490936001600160401b038083169450600160401b830481169350600160801b8304811692600160c01b9004169060ff168c565b6000546001600160a01b031633146103905760405163118cdaa760e01b81523360048201526024016102f6565b600080546001600160a01b038381166001600160a01b0319831681178455604051919092169283917f8be0079c531659141344cd1fd0a4f28419497f9722a3daafe3b4186f6b6457e09190a35050565b600060208284031215610e1857600080fd5b5035919050565b600080600060608486031215610e3457600080fd5b505081359360208301359350604090920135919050565b600060208284031215610e5d57600080fd5b81356001600160a01b0381168114610e7457600080fd5b9392505050565b634e487b7160e01b600052604160045260246000fd5b600082601f830112610ea257600080fd5b81356001600160401b0380821115610ebc57610ebc610e7b565b604051601f8301601f19908116603f01168101908282118183101715610ee457610ee4610e7b565b81604052838152866020858801011115610efd57600080fd5b836020870160208301376000602085830101528094505050505092915050565b80356001600160401b0381168114610f3457600080fd5b919050565b600080600080600080600060e0888a031215610f5457600080fd5b87356001600160401b0380821115610f6b57600080fd5b610f778b838c01610e91565b985060208a0135915080821115610f8d57600080fd5b610f998b838c01610e91565b975060408a0135915080821115610faf57600080fd5b610fbb8b838c01610e91565b965060608a0135915080821115610fd157600080fd5b50610fde8a828b01610e91565b94505060808801359250610ff460a08901610f1d565b915061100260c08901610f1d565b905092959891949750929550565b60008060006060848603121561102557600080fd5b8335925061103560208501610f1d565b915061104360408501610f1d565b90509250925092565b6000815180845260005b8181101561107257602081850181015186830182015201611056565b506000602082860101526020601f19601f83011685010191505092915050565b6001600160a01b038d811682528c166020820152610180604082018190526000906110bf9083018d61104c565b82810360608401526110d1818d61104c565b905082810360808401526110e5818c61104c565b905082810360a08401526110f9818b61104c565b9150508760c083015261111760e08301886001600160401b03169052565b6001600160401b0386166101008301526001600160401b0385166101208301526001600160401b0384166101408301528215156101608301529d9c50505050505050505050505050565b6020808252600b908201526a13db9b1e48189bdbdad95960aa1b604082015260600190565b634e487b7160e01b600052601160045260246000fd5b818103818111156111af576111af611186565b92915050565b634e487b7160e01b600052601260045260246000fd5b6000826111da576111da6111b5565b500490565b80820281158282048414176111af576111af611186565b600181811c9082168061120a57607f821691505b60208210810361122a57634e487b7160e01b600052602260045260246000fd5b50919050565b601f82111561127a57600081815260208120601f850160051c810160208610156112575750805b601f850160051c820191505b8181101561127657828155600101611263565b5050505b505050565b81516001600160401b0381111561129857611298610e7b565b6112ac816112a684546111f6565b84611230565b602080601f8311600181146112e157600084156112c95750858301515b600019600386901b1c1916600185901b178555611276565b600085815260208120601f198616915b82811015611310578886015182559484019460019091019084016112f1565b508582101561132e5787850151600019600388901b60f8161c191681555b5050505050600190811b01905550565b60006101008083526113528184018c61104c565b90508281036020840152611366818b61104c565b9050828103604084015261137a818a61104c565b9050828103606084015261138e818961104c565b608084019790975250506001600160401b0393841660a08201529190921660c082015260e00152949350505050565b808201808211156111af576111af611186565b6001600160401b038281168282160390808211156113f0576113f0611186565b5092915050565b60006001600160401b0380841680611411576114116111b5565b9216919091049291505056fea26469706673582212202472cf5db5d8dfc11b434f03b93cbf0e2f2021507cd3176fa7c0ac319b720a6664736f6c63430008140033",
  "linkReferences": {},
  "deployedLinkReferences": {}
}