{
  "_format": "hh-sol-artifact-1",
  "contractName": "Rent",
  "sourceName": "contracts/Rent.sol",
  "abi": [
    {
      "inputs": [],
      "stateMutability": "nonpayable",
      "type": "constructor"
    },
    {
      "anonymous": false,
      "inputs": [
        {
          "indexed": false,
          "internalType": "uint256",
          "name": "propertyId",
          "type": "uint256"
        },
        {
          "indexed": false,
          "internalType": "address",
          "name": "guest",
          "type": "address"
        },
        {
          "indexed": false,
          "internalType": "uint64",
          "name": "numberOfDays",
          "type": "uint64"
        },
        {
          "indexed": false,
          "internalType": "uint256",
          "name": "price",
          "type": "uint256"
        }
      ],
      "name": "PropertyBookedEvent",
      "type": "event"
    },
    {
      "anonymous": false,
      "inputs": [
        {
          "indexed": false,
          "internalType": "string",
          "name": "name",
          "type": "string"
        },
        {
          "indexed": false,
          "internalType": "string",
          "name": "propertyAddress",
          "type": "string"
        },
        {
          "indexed": false,
          "internalType": "string",
          "name": "description",
          "type": "string"
        },
        {
          "indexed": false,
          "internalType": "string",
          "name": "imgUrl",
          "type": "string"
        },
        {
          "indexed": false,
          "internalType": "uint256",
          "name": "pricePerDay",
          "type": "uint256"
        },
        {
          "indexed": false,
          "internalType": "uint64",
          "name": "numberOfRooms",
          "type": "uint64"
        },
        {
          "indexed": false,
          "internalType": "uint64",
          "name": "area",
          "type": "uint64"
        },
        {
          "indexed": false,
          "internalType": "uint256",
          "name": "propertyId",
          "type": "uint256"
        }
      ],
      "name": "PropertyListedEvent",
      "type": "event"
    },
    {
      "inputs": [
        {
          "internalType": "uint256",
          "name": "propertyId",
          "type": "uint256"
        },
        {
          "internalType": "uint64",
          "name": "startDate",
          "type": "uint64"
        },
        {
          "internalType": "uint64",
          "name": "endDate",
          "type": "uint64"
        }
      ],
      "name": "bookProperty",
      "outputs": [],
      "stateMutability": "payable",
      "type": "function"
    },
    {
      "inputs": [],
      "name": "counter",
      "outputs": [
        {
          "internalType": "uint256",
          "name": "",
          "type": "uint256"
        }
      ],
      "stateMutability": "view",
      "type": "function"
    },
    {
      "inputs": [
        {
          "internalType": "uint256",
          "name": "id",
          "type": "uint256"
        },
        {
          "internalType": "uint256",
          "name": "startDate",
          "type": "uint256"
        },
        {
          "internalType": "uint256",
          "name": "endDate",
          "type": "uint256"
        }
      ],
      "name": "getDuePrice",
      "outputs": [
        {
          "internalType": "uint256",
          "name": "",
          "type": "uint256"
        }
      ],
      "stateMutability": "view",
      "type": "function"
    },
    {
      "inputs": [
        {
          "internalType": "uint256",
          "name": "propertyId",
          "type": "uint256"
        }
      ],
      "name": "getPropertyRentPrice",
      "outputs": [
        {
          "internalType": "uint256",
          "name": "",
          "type": "uint256"
        }
      ],
      "stateMutability": "view",
      "type": "function"
    },
    {
      "inputs": [
        {
          "internalType": "string",
          "name": "name",
          "type": "string"
        },
        {
          "internalType": "string",
          "name": "propertyAddress",
          "type": "string"
        },
        {
          "internalType": "string",
          "name": "description",
          "type": "string"
        },
        {
          "internalType": "string",
          "name": "imgUrl",
          "type": "string"
        },
        {
          "internalType": "uint256",
          "name": "pricePerDay",
          "type": "uint256"
        },
        {
          "internalType": "uint64",
          "name": "numberOfRooms",
          "type": "uint64"
        },
        {
          "internalType": "uint64",
          "name": "area",
          "type": "uint64"
        }
      ],
      "name": "listProperty",
      "outputs": [
        {
          "internalType": "uint256",
          "name": "",
          "type": "uint256"
        }
      ],
      "stateMutability": "nonpayable",
      "type": "function"
    },
    {
      "inputs": [],
      "name": "owner",
      "outputs": [
        {
          "internalType": "address",
          "name": "",
          "type": "address"
        }
      ],
      "stateMutability": "view",
      "type": "function"
    },
    {
      "inputs": [
        {
          "internalType": "uint256",
          "name": "",
          "type": "uint256"
        }
      ],
      "name": "properties",
      "outputs": [
        {
          "internalType": "address",
          "name": "owner",
          "type": "address"
        },
        {
          "internalType": "address",
          "name": "guest",
          "type": "address"
        },
        {
          "internalType": "string",
          "name": "name",
          "type": "string"
        },
        {
          "internalType": "string",
          "name": "propertyAddress",
          "type": "string"
        },
        {
          "internalType": "string",
          "name": "description",
          "type": "string"
        },
        {
          "internalType": "string",
          "name": "imgUrl",
          "type": "string"
        },
        {
          "internalType": "uint256",
          "name": "pricePerDay",
          "type": "uint256"
        },
        {
          "internalType": "uint64",
          "name": "bookingStartsAt",
          "type": "uint64"
        },
        {
          "internalType": "uint64",
          "name": "bookingEndsAt",
          "type": "uint64"
        },
        {
          "internalType": "uint64",
          "name": "numberOfRooms",
          "type": "uint64"
        },
        {
          "internalType": "uint64",
          "name": "area",
          "type": "uint64"
        },
        {
          "internalType": "bool",
          "name": "isActive",
          "type": "bool"
        }
      ],
      "stateMutability": "view",
      "type": "function"
    },
    {
      "inputs": [
        {
          "internalType": "uint256",
          "name": "propertyId",
          "type": "uint256"
        }
      ],
      "name": "unBookPropertyByGuest",
      "outputs": [],
      "stateMutability": "payable",
      "type": "function"
    },
    {
      "inputs": [
        {
          "internalType": "uint256",
          "name": "propertyId",
          "type": "uint256"
        }
      ],
      "name": "unBookPropertyByOwner",
      "outputs": [],
      "stateMutability": "payable",
      "type": "function"
    },
    {
      "inputs": [
        {
          "internalType": "uint256",
          "name": "propertyId",
          "type": "uint256"
        }
      ],
      "name": "unlistProperty",
      "outputs": [],
      "stateMutability": "nonpayable",
      "type": "function"
    }
  ],
  "bytecode": "0x608060405234801561001057600080fd5b506000600181905580546001600160a01b031916331790556111b2806100376000396000f3fe6080604052600436106100915760003560e01c806386dd421b1161005957806386dd421b14610141578063876a8f91146101545780638da5cb5b14610167578063b543cdcf1461019f578063f7b10808146101b257600080fd5b80632588c845146100965780632780842a146100c957806361bc221a146100e9578063841ad8b9146100ff57806385ae606414610121575b600080fd5b3480156100a257600080fd5b506100b66100b1366004610b95565b6101ea565b6040519081526020015b60405180910390f35b3480156100d557600080fd5b506100b66100e4366004610bae565b610269565b3480156100f557600080fd5b506100b660015481565b34801561010b57600080fd5b5061011f61011a366004610b95565b6102ad565b005b34801561012d57600080fd5b506100b661013c366004610c98565b6103ea565b61011f61014f366004610d6f565b610506565b61011f610162366004610b95565b6106d8565b34801561017357600080fd5b50600054610187906001600160a01b031681565b6040516001600160a01b0390911681526020016100c0565b61011f6101ad366004610b95565b61079b565b3480156101be57600080fd5b506101d26101cd366004610b95565b6108f3565b6040516100c09c9b9a99989796959493929190610df1565b600081815260026020526040812060018101548391906001600160a01b031661022e5760405162461bcd60e51b815260040161022590610ec0565b60405180910390fd5b600084815260026020526040902060078101546102609086906001600160401b0380821691600160401b900416610269565b95945050505050565b6000838152600260205260408120816305265c006102878686610efb565b6102919190610f2a565b90508160060154816102a39190610f3e565b9695505050505050565b600081815260026020526040902080548291906001600160a01b0316331461030d5760405162461bcd60e51b815260206004820152601360248201527227b7363c90383937b832b93a3c9037bbb732b960691b6044820152606401610225565b600083815260026020526040902060018101548491906001600160a01b03161561036b5760405162461bcd60e51b815260206004820152600f60248201526e13db9b1e481b9bdd08189bdbdad959608a1b6044820152606401610225565b6000858152600260205260409020600881015460ff166103d85760405162461bcd60e51b815260206004820152602260248201527f50726f706572747920686173206265656e20616c726561647920756e6c697374604482015261195960f21b6064820152608401610225565b600801805460ff191690555050505050565b6001546000908152600260208190526040822090810161040a8a82610fde565b50600381016104198982610fde565b50600481016104288882610fde565b50600581016104378782610fde565b506006810185905560088101805460ff191660019081179091556001600160401b03848116600160c01b026001600160c01b03918716600160801b029190911617600783015581546001600160a01b03199081163317835581830180549091169055546040517fdd84cc9e19f0c3fce0783973a3a8805d3d4da80b5484271cfae2e99c19fbd939916104d7918c918c918c918c918c918c918c919061109d565b60405180910390a160018060008282546104f1919061111c565b90915550506001549998505050505050505050565b600083815260026020526040902060018101548491906001600160a01b0316156105645760405162461bcd60e51b815260206004820152600f60248201526e13db9b1e481b9bdd08189bdbdad959608a1b6044820152606401610225565b60006305265c00610575868661112f565b61057f9190611156565b6000878152600260205260409020600601549091506105a7906001600160401b038316610f3e565b3410156105e75760405162461bcd60e51b815260206004820152600e60248201526d29b2b7321036b7b9329022aa241760911b6044820152606401610225565b6000868152600260205260408082205490516001600160a01b03909116913480156108fc02929091818181858888f1935050505015801561062c573d6000803e3d6000fd5b506000868152600260209081526040918290206007810180546001600160401b038a81166fffffffffffffffffffffffffffffffff1990921691909117600160401b8a8316021790915560019091018054336001600160a01b0319909116811790915583518a81529283015283168183015234606082015290517f1b22ea716339971edfa4113ba98cc6967858f511577d7d21e921550c0192ccae9181900360800190a1505050505050565b600081815260026020526040902060018101548291906001600160a01b03166107135760405162461bcd60e51b815260040161022590610ec0565b600083815260026020526040902060018101548491906001600160a01b031633146107765760405162461bcd60e51b815260206004820152601360248201527213db9b1e481c1c9bdc195c9d1e4819dd595cdd606a1b6044820152606401610225565b50505060009182525060026020526040902060010180546001600160a01b0319169055565b600081815260026020526040902060018101548291906001600160a01b03166107d65760405162461bcd60e51b815260040161022590610ec0565b600083815260026020526040902080548491906001600160a01b031633146108365760405162461bcd60e51b815260206004820152601360248201527227b7363c90383937b832b93a3c9037bbb732b960691b6044820152606401610225565b6000610841866101ea565b9050803410156108845760405162461bcd60e51b815260206004820152600e60248201526d29b2b7321036b7b9329022aa241760911b6044820152606401610225565b6000868152600260205260408082206001015490516001600160a01b03909116913480156108fc02929091818181858888f193505050501580156108cc573d6000803e3d6000fd5b505050600093845250506002602052506040902060010180546001600160a01b0319169055565b60026020819052600091825260409091208054600182015492820180546001600160a01b0392831694909216929161092a90610f55565b80601f016020809104026020016040519081016040528092919081815260200182805461095690610f55565b80156109a35780601f10610978576101008083540402835291602001916109a3565b820191906000526020600020905b81548152906001019060200180831161098657829003601f168201915b5050505050908060030180546109b890610f55565b80601f01602080910402602001604051908101604052809291908181526020018280546109e490610f55565b8015610a315780601f10610a0657610100808354040283529160200191610a31565b820191906000526020600020905b815481529060010190602001808311610a1457829003601f168201915b505050505090806004018054610a4690610f55565b80601f0160208091040260200160405190810160405280929190818152602001828054610a7290610f55565b8015610abf5780601f10610a9457610100808354040283529160200191610abf565b820191906000526020600020905b815481529060010190602001808311610aa257829003601f168201915b505050505090806005018054610ad490610f55565b80601f0160208091040260200160405190810160405280929190818152602001828054610b0090610f55565b8015610b4d5780601f10610b2257610100808354040283529160200191610b4d565b820191906000526020600020905b815481529060010190602001808311610b3057829003601f168201915b50505060068401546007850154600890950154939490936001600160401b038083169450600160401b830481169350600160801b8304811692600160c01b9004169060ff168c565b600060208284031215610ba757600080fd5b5035919050565b600080600060608486031215610bc357600080fd5b505081359360208301359350604090920135919050565b634e487b7160e01b600052604160045260246000fd5b600082601f830112610c0157600080fd5b81356001600160401b0380821115610c1b57610c1b610bda565b604051601f8301601f19908116603f01168101908282118183101715610c4357610c43610bda565b81604052838152866020858801011115610c5c57600080fd5b836020870160208301376000602085830101528094505050505092915050565b80356001600160401b0381168114610c9357600080fd5b919050565b600080600080600080600060e0888a031215610cb357600080fd5b87356001600160401b0380821115610cca57600080fd5b610cd68b838c01610bf0565b985060208a0135915080821115610cec57600080fd5b610cf88b838c01610bf0565b975060408a0135915080821115610d0e57600080fd5b610d1a8b838c01610bf0565b965060608a0135915080821115610d3057600080fd5b50610d3d8a828b01610bf0565b94505060808801359250610d5360a08901610c7c565b9150610d6160c08901610c7c565b905092959891949750929550565b600080600060608486031215610d8457600080fd5b83359250610d9460208501610c7c565b9150610da260408501610c7c565b90509250925092565b6000815180845260005b81811015610dd157602081850181015186830182015201610db5565b506000602082860101526020601f19601f83011685010191505092915050565b6001600160a01b038d811682528c16602082015261018060408201819052600090610e1e9083018d610dab565b8281036060840152610e30818d610dab565b90508281036080840152610e44818c610dab565b905082810360a0840152610e58818b610dab565b9150508760c0830152610e7660e08301886001600160401b03169052565b6001600160401b0386166101008301526001600160401b0385166101208301526001600160401b0384166101408301528215156101608301529d9c50505050505050505050505050565b6020808252600b908201526a13db9b1e48189bdbdad95960aa1b604082015260600190565b634e487b7160e01b600052601160045260246000fd5b81810381811115610f0e57610f0e610ee5565b92915050565b634e487b7160e01b600052601260045260246000fd5b600082610f3957610f39610f14565b500490565b8082028115828204841417610f0e57610f0e610ee5565b600181811c90821680610f6957607f821691505b602082108103610f8957634e487b7160e01b600052602260045260246000fd5b50919050565b601f821115610fd957600081815260208120601f850160051c81016020861015610fb65750805b601f850160051c820191505b81811015610fd557828155600101610fc2565b5050505b505050565b81516001600160401b03811115610ff757610ff7610bda565b61100b816110058454610f55565b84610f8f565b602080601f83116001811461104057600084156110285750858301515b600019600386901b1c1916600185901b178555610fd5565b600085815260208120601f198616915b8281101561106f57888601518255948401946001909101908401611050565b508582101561108d5787850151600019600388901b60f8161c191681555b5050505050600190811b01905550565b60006101008083526110b18184018c610dab565b905082810360208401526110c5818b610dab565b905082810360408401526110d9818a610dab565b905082810360608401526110ed8189610dab565b608084019790975250506001600160401b0393841660a08201529190921660c082015260e00152949350505050565b80820180821115610f0e57610f0e610ee5565b6001600160401b0382811682821603908082111561114f5761114f610ee5565b5092915050565b60006001600160401b038084168061117057611170610f14565b9216919091049291505056fea2646970667358221220f2b1fcaa6df269bdd6c7c6c967e4e0dc6a2b52d8bff211631902151532870eca64736f6c63430008140033",
  "linkReferences": {},
  "deployedLinkReferences": {}
}